:020000040800F2
:1000000000000120A1360008E9330008F1330008A0
:10001000F93300080134000809340008000000002A
:100020000000000000000000000000001134000883
:100030001F340008000000002D3400083D34000883
:10004000F1360008F1360008F1360008F1360008F4
:10005000F1360008F1360008F1360008F1360008E4
:10006000F1360008F1360008F13600087534000852
:10007000F1360008F1360008F1360008F1360008C4
:1000800089340008F13600089D340008F136000874
:10009000F1360008F1360008F1360008B1340008E6
:1000A000F1360008F1360008F1360008F136000894
:1000B000F13600080000000000000000F1360008E2
:1000C000F1360008F1360008F1360008F136000874
:1000D000F1360008C9340008DD340008F1360008A4
:1000E000F1360008F13600080000000000000000B2
:1000F0000000000000000000000000000000000000
:1001000000000000F136000800000000F136000891
:100110000000000000000000F13400081535000860
:10012000F1360008F1360008F1360008F136000813
:10013000F136000800000000000000000000000090
:10014000F1360008F1360008F1360008F1360008F3
:10015000F1360008F1360008F1360008F1360008E3
:10016000F1360008F1360008F13600080000000002
:10017000F1360008F1360008F136000800000000F2
:0C018000F1360008F1360008F1360008E6
:1001900010B5054C237833B9044B13B10448AFF3C1
:1001A00000800123237010BDD40100200000000056
:1001B000ECCC000808B5034B1BB103490348AFF36F
:1001C000008008BD00000000D8010020ECCC000831
:1001D00001F0FF01102A2BDB10F0070F08D010F8F8
:1001E000013B013A8B422DD010F0070F42B3F6D1FC
:1001F000F0B441EA012141EA014122F007047FF015
:1002000000070023F0E80256083C85EA010586EA6B
:10021000010685FA47F5A3FA87F586FA47F6A5FAA7
:1002200087F68EB9EED1F0BC01F0FF0102F00702B3
:1002300032B110F8013B013A83EA010313B1F8D15E
:100240000020704701387047002D06BF354603383F
:10025000073815F0010F07D1013015F4807F02BF78
:10026000013015F4C03F0130F0BC0138704700BFC9
:10027000034613F8012B002AFBD1181A01387047E6
:1002800081F0004102E000BF83F0004330B54FEA47
:1002900041044FEA430594EA050F08BF90EA020FB4
:1002A0001FBF54EA000C55EA020C7FEA645C7FEA47
:1002B000655C00F0E2804FEA5454D4EB5555B8BF6A
:1002C0006D420CDD2C4480EA020281EA030382EADB
:1002D000000083EA010180EA020281EA0303362D6D
:1002E00088BF30BD11F0004F4FEA01314FF4801C40
:1002F0004CEA113102D0404261EB410113F0004F52
:100300004FEA03334CEA133302D0524263EB430308
:1003100094EA050F00F0A780A4F10104D5F1200EA6
:100320000DDB02FA0EFC22FA05F2801841F1000101
:1003300003FA0EF2801843FA05F359410EE0A5F1D5
:1003400020050EF1200E012A03FA0EFC28BF4CF006
:10035000020C43FA05F3C01851EBE37101F00045BC
:1003600007D54FF0000EDCF1000C7EEB00006EEBC9
:100370000101B1F5801F1BD3B1F5001F0CD3490853
:100380005FEA30004FEA3C0C04F101044FEA4452AA
:1003900012F5800F80F09A80BCF1004F08BF5FEA31
:1003A000500C50F1000041EB045141EA050130BD11
:1003B0005FEA4C0C404141EB0101013C28BFB1F523
:1003C000801FE9D291F0000F04BF01460020B1FA6E
:1003D00081F308BF2033A3F10B03B3F120020CDA41
:1003E0000C3208DD02F1140CC2F10C0201FA0CF01F
:1003F00021FA02F10CE002F11402D8BFC2F1200C84
:1004000001FA02F120FA0CFCDCBF41EA0C01904039
:10041000E41AA2BF01EB0451294330BD6FEA040482
:100420001F3C1CDA0C340EDC04F11404C4F120026D
:1004300020FA04F001FA02F340EA030021FA04F37F
:1004400045EA030130BDC4F10C04C4F1200220FAD6
:1004500002F001FA04F340EA0300294630BD21FA14
:1004600004F0294630BD94F0000F83F4801306BFDA
:1004700081F480110134013D4EE77FEA645C18BFCE
:100480007FEA655C29D094EA050F08BF90EA020F65
:1004900005D054EA000C04BF1946104630BD91EA5D
:1004A000030F1EBF0021002030BD5FEA545C05D160
:1004B0004000494128BF41F0004130BD14F580049F
:1004C0003CBF01F5801130BD01F0004545F0FE4113
:1004D00041F470014FF0000030BD7FEA645C1ABF48
:1004E000194610467FEA655C1CBF0B46024650EA7F
:1004F000013406BF52EA033591EA030F41F40021AB
:1005000030BD00BF90F0000F04BF0021704730B530
:100510004FF4806404F132044FF000054FF0000105
:1005200050E700BF90F0000F04BF0021704730B5C6
:100530004FF4806404F1320410F0004548BF40429B
:100540004FF000013EE700BF42004FEAE2014FEAF0
:1005500031014FEA02701FBF12F07F4393F07F4FCB
:1005600081F06051704732F07F4208BF704793F0CE
:100570007F4F04BF41F40021704730B54FF46074E1
:1005800001F0004521F000411CE700BF50EA0102E4
:1005900008BF704730B54FF000050AE050EA01028D
:1005A00008BF704730B511F0004502D5404261EBFD
:1005B00041014FF4806404F132045FEA915C3FF43E
:1005C000D8AE4FF003025FEADC0C18BF03325FEADB
:1005D000DC0C18BF033202EBDC02C2F1200300FA8C
:1005E00003FC20FA02F001FA03FE40EA0E0021FAB1
:1005F00002F11444BDE600BF70B54FF0FF0C4CF49F
:10060000E06C1CEA11541DBF1CEA135594EA0C0F50
:1006100095EA0C0F00F0DEF82C4481EA030621EA8B
:100620004C5123EA4C5350EA013518BF52EA0335C6
:1006300041F4801143F4801338D0A0FB02CE4FF078
:100640000005E1FB02E506F00042E0FB03E54FF0A8
:100650000006E1FB03569CF0000F18BF4EF0010EA0
:10066000A4F1FF04B6F5007F64F5407404D25FEA9C
:100670004E0E6D4146EB060642EAC62141EA55514F
:100680004FEAC52040EA5E504FEACE2EB4F1FD0C91
:1006900088BFBCF5E06F1ED8BEF1004F08BF5FEA0F
:1006A000500E50F1000041EB045170BD06F00046C1
:1006B00046EA010140EA020081EA0301B4EB5C046E
:1006C000C2BFD4EB0C0541EA045170BD41F4801166
:1006D0004FF0000E013C00F3AB8014F1360FDEBF8B
:1006E000002001F0004170BDC4F10004203C35DA67
:1006F0000C341BDC04F11404C4F1200500FA05F3EA
:1007000020FA04F001FA05F240EA020001F000428A
:1007100021F0004110EBD37021FA04F642EB060100
:100720005EEA430E08BF20EAD37070BDC4F10C042A
:10073000C4F1200500FA04F320FA05F001FA04F2EE
:1007400040EA020001F0004110EBD37041F10001DA
:100750005EEA430E08BF20EAD37070BDC4F12005E5
:1007600000FA05F24EEA020E20FA04F301FA05F24D
:1007700043EA020321FA04F001F0004121FA04F2F5
:1007800020EA020000EBD3705EEA430E08BF20EAC5
:10079000D37070BD94F0000F0FD101F000464000FF
:1007A00041EB010111F4801F08BF013CF7D041EA81
:1007B000060195F0000F18BF704703F00046520085
:1007C00043EB030313F4801F08BF013DF7D043EA56
:1007D0000603704794EA0C0F0CEA135518BF95EA0C
:1007E0000C0F0CD050EA410618BF52EA4306D1D193
:1007F00081EA030101F000414FF0000070BD50EAB2
:10080000410606BF1046194652EA430619D094EA3B
:100810000C0F02D150EA013613D195EA0C0F05D125
:1008200052EA03361CBF104619460AD181EA030179
:1008300001F0004141F0FE4141F470014FF0000031
:1008400070BD41F0FE4141F4780170BD70B54FF0CC
:10085000FF0C4CF4E06C1CEA11541DBF1CEA13554C
:1008600094EA0C0F95EA0C0F00F0A7F8A4EB05042E
:1008700081EA030E52EA03354FEA013100F0888025
:100880004FEA03334FF0805545EA131343EA1263EE
:100890004FEA022245EA111545EA10654FEA0026A3
:1008A0000EF000419D4208BF964244F1FD0404F55C
:1008B000407402D25B084FEA3202B61A65EB0305B8
:1008C0005B084FEA32024FF480104FF4002CB6EB75
:1008D000020E75EB030E22BFB61A754640EA0C00F5
:1008E0005B084FEA3202B6EB020E75EB030E22BF35
:1008F000B61A754640EA5C005B084FEA3202B6EB76
:10090000020E75EB030E22BFB61A754640EA9C0034
:100910005B084FEA3202B6EB020E75EB030E22BF04
:10092000B61A754640EADC0055EA060E18D04FEAC2
:10093000051545EA16754FEA06164FEAC30343EA62
:1009400052734FEAC2025FEA1C1CC0D111F4801F2F
:100950000BD141EA00014FF000004FF0004CB6E728
:1009600011F4801F04BF01430020B4F1FD0C88BFC7
:10097000BCF5E06F3FF6AFAEB5EB030C04BFB6EBD2
:10098000020C5FEA500C50F1000041EB045170BDC5
:100990000EF0004E4EEA113114EB5C04C2BFD4EBF2
:1009A0000C0541EA045170BD41F480114FF0000E76
:1009B000013C90E645EA060E8DE60CEA135594EAF2
:1009C0000C0F08BF95EA0C0F3FF43BAF94EA0C0FF5
:1009D0000AD150EA01347FF434AF95EA0C0F7FF46A
:1009E00025AF104619462CE795EA0C0F06D152EABE
:1009F00003353FF4FDAE1046194622E750EA4106A2
:100A000018BF52EA43067FF4C5AE50EA41047FF4B2
:100A10000DAF52EA43057FF4EBAE12E74FF0FF3C17
:100A200006E000BF4FF0010C02E000BF4FF0010CE8
:100A30004DF804CD4FEA410C7FEA6C5C4FEA430C61
:100A400018BF7FEA6C5C1BD001B050EA410C0CBFB0
:100A500052EA430C91EA030F02BF90EA020F002012
:100A6000704710F1000F91EA030F58BF994208BF79
:100A700090422CBFD8176FEAE37040F00100704736
:100A80004FEA410C7FEA6C5C02D150EA013C07D18D
:100A90004FEA430C7FEA6C5CD6D152EA033CD3D0D8
:100AA0005DF8040B704700BF8446104662468C46D2
:100AB0001946634600E000BF01B5FFF7B7FF002805
:100AC00048BF10F1000F01BD4DF808EDFFF7F4FF2E
:100AD0000CBF012000205DF808FB00BF4DF808EDB9
:100AE000FFF7EAFF34BF012000205DF808FB00BFDC
:100AF0004DF808EDFFF7E0FF94BF012000205DF8FE
:100B000008FB00BF4DF808EDFFF7CEFF94BF0120B2
:100B100000205DF808FB00BF4DF808EDFFF7C4FFAB
:100B200034BF012000205DF808FB00BF4FEA410CF4
:100B30007FEA6C5C02D150EA013C0AD14FEA430CD7
:100B40007FEA6C5C02D152EA033C02D14FF0000014
:100B500070474FF0010070474FEA410212F5001252
:100B600015D211D56FF47873B3EB625212D94FEAF4
:100B7000C12343F0004343EA505311F0004F23FADE
:100B800002F018BF404270474FF00000704750EA33
:100B9000013005D111F0004008BF6FF000407047F0
:100BA0004FF00000704700BF4A0011D212F500124A
:100BB00011D20DD56FF47873B3EB62520ED44FEAB5
:100BC000C12343F0004343EA505323FA02F0704735
:100BD0004FF00000704750EA013002D14FF0FF3073
:100BE00070474FF0000070474FEA4102B2F1E04316
:100BF00024BFB3F5001CDCF1FE5C0DD901F0004C04
:100C00004FEAC0024CEA5070B2F1004F40EB830053
:100C100008BF20F00100704711F0804F21D113F17F
:100C20003872BCBF01F00040704741F480114FEAB8
:100C30005252C2F11802C2F1200C10FA0CF320FA41
:100C400002F018BF40F001004FEAC1234FEAD3235E
:100C500003FA0CFC40EA0C0023FA02F34FEA4303C8
:100C6000CCE77FEA625307D150EA01331EBF4FF051
:100C7000FE4040F44000704701F0004040F0FE406C
:100C800040F40000704700BF53B94AB9002908BFBB
:100C900000281CBF4FF0FF314FF0FF3000F06AB961
:100CA000ADF1080C6DE904CE00F006F8DDF804E0C3
:100CB000DDE9022304B070472DE9F047089D0C469A
:100CC000002B4ED194468C458646B2FA82F262D908
:100CD0004AB1C2F12003914020FA03F30CFA02FC5E
:100CE000194300FA02FE4FEA1C471FFA8CF6B1FBCB
:100CF000F7F44FEA1E4307FB141143EA014304FBD8
:100D000006F199420AD91CEB030304F1FF3080F08D
:100D10001281994240F20F81023C6344591A1FFA32
:100D20008EF3B1FBF7F007FB101143EA014300FB20
:100D300006F69E420AD91CEB030300F1FF3180F056
:100D4000FC809E4240F2F980634402389B1B40EADB
:100D5000044000211DB1D3400022C5E90032BDE8A6
:100D6000F0878B4205D90DB1C5E900010021084685
:100D7000F5E7B3FA83F1002946D1A34202D39042AA
:100D8000C0F0F080861A64EB03030120002DE6D04A
:100D9000C5E90063E3E7002A40F09080A1EB0C0472
:100DA0004FEA1C481FFA8CF70121B4FBF8F64FEA12
:100DB0001E4308FB164443EA044307FB06F098422F
:100DC00008D91CEB030306F1FF3402D2984200F26B
:100DD000CD8026461C1A1FFA8EF3B4FBF8F008FBF0
:100DE000104443EA044300FB07F79F4208D91CEB79
:100DF000030300F1FF3402D29F4200F2B08020468C
:100E0000DB1B40EA0640A5E7C1F120068B4022FA31
:100E100006F71F4320FA06FC04FA01F343EA0C0329
:100E2000F44000FA01F8380C4FEA1349B4FBF0FE25
:100E30001FFA87FC00FB1E4449EA04440EFB0CF930
:100E4000A14502FA01F20AD93C190EF1FF3A80F0ED
:100E50008480A14540F28180AEF1020E3C44A4EBB7
:100E600009041FFA83F9B4FBF0F300FB134449EAC9
:100E7000044403FB0CFCA44507D93C1903F1FF30E3
:100E800067D2A44565D9023B3C4443EA0E40A0FB2F
:100E90000293A4EB0C049C42CE469C4651D34ED008
:100EA00055B1B8EB0E0364EB0C0404FA06F6CB4024
:100EB0001E43CC40C5E90064002150E7C2F1200385
:100EC00020FA03F10CFA02FC24FA03F394400C43D9
:100ED0004FEA1C4800FA02FE1FFA8CF7B3FBF8F049
:100EE00008FB1031230C43EA014300FB07F1994250
:100EF00008D91CEB030300F1FF362CD299422AD902
:100F0000023863445B1AA4B2B3FBF8F108FB113357
:100F100044EA034401FB07F3A34208D91CEB040491
:100F200001F1FF3613D2A34211D902396444E41A05
:100F300041EA004139E70446F0E6084606E7C845BD
:100F4000AED2B9EB020E63EB070C0138A8E73146CD
:100F5000EDE7034699E73046D4E7D6467FE763449A
:100F600002384DE70646234608460FE7023E634433
:100F700030E700BF704700BF80B483B000AF87ED9B
:100F8000010A144B1B7A012B0ED1134B1B6807EE81
:100F9000903AB8EEE77AD7ED017A27EE277ADFEDBF
:100FA0000F6AC7EE267A0DE00B4B1B6807EE903AEE
:100FB000B8EEE77AD7ED017A27EE277AF2EE046AE7
:100FC000C7EE267AB0EE670A0C37BD465DF8047BA3
:100FD000704700BFF0010020200200200000C8423E
:100FE000B0B500AFDFED187AB0EE670AFFF7C4FFC7
:100FF000F0EE407A9FED157A77EEC77A17EE900AF9
:10100000FFF7A2FA04460D46114B1B681846FFF77E
:1010100089FA0BA3D3E90023FFF7EEFA02460B4649
:1010200020462946FFF712FC02460B461046194699
:10103000FFF7DAFD034607EE903AB0EE670AB0BD5F
:1010400005A3923A019D23400000C84200DAC5473B
:10105000F001002080B584B002AF3F4B5B68002BED
:1010600001D1012373E04A23FB713B4B586876237F
:101070005B0099B2FA1D4FF0FF330093012304F097
:1010800067FE142002F0AAFB0023FB71324B586864
:1010900076235B0099B2FA1D4FF0FF3300930123D2
:1010A00004F056FE0A2000F097FD2B4B586876237B
:1010B0005B0099B23A1D4FF0FF330093032304F015
:1010C0005FFF0A2000F088FD3B791A047B791B0240
:1010D0001343BA791343214A13605A23FB711E4B01
:1010E000586876235B0099B2FA1D4FF0FF330093E6
:1010F000012304F02DFE142002F070FB0023FB718D
:10110000154B586876235B0099B2FA1D4FF0FF33F8
:101110000093012304F01CFE0A2000F05DFD0E4B3D
:10112000586876235B0099B23A1D4FF0FF33009365
:10113000032304F025FF3B791A047B791B02134338
:10114000BA791343064A136000F00CF800231846DE
:101150000837BD4680BD00BFF0010020140200200A
:10116000180200202DE9B00FADF50D7D00AF002372
:10117000C7F810324FF000024FF00003C7E98A238E
:101180004FF000024FF00003C7E988230023C7F89F
:101190001C320023C7F818320023C7F814324FF06E
:1011A00000024FF00003C7E982234FF000024FF026
:1011B0000003C7E98023954B1A68954B5B891B0296
:1011C000D31AC7F81032934B1B7A012B40F02A81B7
:1011D0008F4B5B889BB20022984691464FF00004EB
:1011E0004FF000054FEA094545EA18454FEA084423
:1011F000874BDB889BB20022C7F8A031C7F8A42137
:10120000D7F81032DA17C7F89831C7F89C21D7E918
:1012100068894B46D7E966AB524602FB03F25B4650
:10122000414601FB03F3134442465146A2FB01121F
:10123000C7F8FC210A46C7F8F821D7F8FC21134467
:10124000C7F8FC31D7E97E23002B09DA12F17F01C0
:10125000C7F8C01043F10003C7F8C430D7E9302302
:101260004FF000004FF00001D00940EA4360D9116F
:1012700002460B46A118C7F8B81045EB0303C7F8A0
:10128000BC30D7E92E34C7E98A34614B9B889BB2C6
:101290000022C7F89031C7F894214FF000044FF0B6
:1012A0000005D7E9641213465D040B4645EAD335C1
:1012B0000B465C04564B1B899BB20022C7F8883151
:1012C000C7F88C21D7F81032DA17C7F88031C7F881
:1012D0008421D7E962894B46D7E960AB524602FBCD
:1012E00003F25B46414601FB03F313444246514679
:1012F000A2FB0112C7F8F4210A46C7F8F021D7F87B
:10130000F4211344C7F8F431D7E97C23002B09DA20
:1013100012F13F01C7F8B01043F10003C7F8B43031
:10132000D7E92C234FF000004FF00001900940EA6C
:101330008360991102460B46A118C7F8A81045EB27
:101340000303C7F8AC30D7E92A34C7E98834324BF5
:101350001B680022C7F87831C7F87C21D7F82832FB
:10136000D7E95E452A4602FB03F2D7F82C32214624
:1013700001FB03F31A44D7F828322146A3FB0113DB
:10138000C7F8EC310B46C7F8E831D7F8EC31D31881
:10139000C7F8EC31D7E97A23002B09DA1F49511835
:1013A000C7F8A01043F10003C7F8A430D7E92823F9
:1013B0004FF000004FF00001500D40EAC3205915D6
:1013C000D7E98823841AC7F8704161EB0303C7F893
:1013D0007431D7E95C23002B0ADA47F6FF71511804
:1013E000C7F8981043F10003C7F89C30D7E92623CB
:1013F0004FF000004FF00001D00B40EA4340D913FA
:1014000002460B46064B1A6019E100BF1802002085
:1014100004020020F001002014020020FFFF1F0042
:1014200020020020DE4B5B889BB20022184611464A
:101430004FF000044FF00005CD0345EA5045C403CA
:10144000D74BDB889BB20022C7F86831C7F86C2104
:10145000D7F81032DA179A469346D7E95A010B4665
:101460000AFB03F2034603FB0BF313440246A2FB01
:101470000A12C7F8E4210A46C7F8E021D7F8E421A8
:101480001344C7F8E431D7E97823002B09DA12F1C5
:10149000FF01C7F8901043F10003C7F89430D7E973
:1014A00024234FF000004FF00001100A40EA0360CF
:1014B000191202460B46A118C7F8881045EB030322
:1014C000C7F88C30D7E92234C7E98A34B44B9B88FB
:1014D0009BB20022C7F86031C7F864214FF00004C6
:1014E0004FF00005D7E9581213461D040B4645EA94
:1014F00013450B461C04AA4B1B899BB20022C7F85C
:101500005831C7F85C21D7F81032DA17C7F85031D4
:10151000C7F85421D7E956894B46D7E954AB524610
:1015200002FB03F25B46414601FB03F313444246D0
:101530005146A2FB0112C7F8DC210A46C7F8D821A0
:10154000D7F8DC211344C7F8DC31D7E97623002B28
:1015500009DA12F17F01C7F8801043F10003C7F8E0
:101560008430D7E920234FF000004FF00001D0096C
:1015700040EA4360D91102460B46A118B96745EB12
:101580000303FB67D7E91E34C7E98834854B1B6822
:101590000022C7F84831C7F84C21D7F82832D7E9DC
:1015A00052452A4602FB03F2D7F82C32214601FBB2
:1015B00003F31A44D7F828322146A3FB0113C7F8D6
:1015C000D4310B46C7F8D031D7F8D431D318C7F887
:1015D000D431D7E97423002B07DA734951183967DE
:1015E00043F100037B67D7E91C234FF000004FF065
:1015F0000001500D40EAC3205915D7E98823841A09
:10160000C7F8404161EB0303C7F84431D7E95023E1
:10161000002B08DA41F6FF715118B96643F1000357
:10162000FB66D7E91A234FF000004FF00001500B82
:1016300040EAC340591302460B465C4B1A60D7F888
:101640001032DA17C7F83831C7F83C21544B9B8960
:101650009BB20022C7F83031C7F83421D7E94E4594
:101660002B46D7E94C89424602FB03F24B46214602
:1016700001FB03F3134422464146A2FB0112C7F8C3
:10168000CC210A46C7F8C821D7F8CC211344C7F8A3
:10169000CC31D7E97223002B07DA45495118396656
:1016A00043F100037B66D7E918234FF000004FF0A9
:1016B0000001D00D40EA4320D91502460B461346DF
:1016C00003F5FA631A463B4B1A603B4B1B7A012B1E
:1016D00040F0A680374B1B68B3F5FA6F80F27D812E
:1016E000D7F81032DA17C7F82831C7F82C21D7F805
:1016F0001032DA17C7F82031C7F82421D7E94A4554
:101700002B46D7E94889424602FB03F24B46214665
:1017100001FB03F3134422464146A2FB0112C7F822
:10172000C4210A46C7F8C021D7F8C4211344C7F81A
:10173000C431D7E9704522462B469118B9655B4103
:10174000FB65D7E9162321465118396529464B41D7
:101750007B654FF000024FF00003D7E9148949463A
:101760008B00414643EA917341468A001046194670
:10177000034622469B1AC7F818310B462A4663EBEC
:101780000203C7F81C31D7E94623002B16DA511E95
:10179000B96443F10703FB64D7E912230EE000BFED
:1017A0000402002014020020FFFF1F00200200207E
:1017B000FFFF7F001C020020F00100204FF000001E
:1017C0004FF00001D810D91702460B461346C7F850
:1017D0001432CA4B1B68A3F5FA62C84B1B68A3F509
:1017E000FA6303FB02F213465B019B1A002B00DA3B
:1017F0000733DB10C7F81832C04B1B68A3F5FA6239
:10180000BE4B1B68A3F5FA6303FB02F213469B0170
:101810009B1A002B00DA1F335B11C7F81C32DCE087
:10182000B64B1B68B3F5FA6F80F29F80D7F8103281
:10183000DA17C7F81031C7F81421D7F81032DA17C1
:10184000C7F80831C7F80C21D7E944452B46D7E93A
:101850004289424602FB03F24B46214601FB03F359
:10186000134422464146A2FB0112C7F8BC210A4696
:10187000C7F8B821D7F8BC211344C7F8BC31D7E961
:101880006E4522462B46911839645B417B64D7E94B
:10189000102321465118C7F80011294643EB0101D6
:1018A000C7F80411D7E94023002B06DA511EB963AB
:1018B00043F10103FB63D7E90E234FF000004FF023
:1018C00000015810D91702460B461346C7F81432C8
:1018D0008A4B1B68A3F5FA62884B1B68A3F5FA6371
:1018E00003FB02F213465B001A44D30F13445B1050
:1018F000C7F81832814B1B68A3F5FA627F4B1B684F
:10190000A3F5FA6303FB02F213469B001344002B7A
:1019100000DA0733DB10C7F81C32784B1B6813F56D
:10192000C86F5ADC754B1B6803F2DC52734B1B68A3
:1019300003F2DC5303FB02F21346DB009A1AD7F8DA
:1019400018321344C7F818326C4B1B6803F2DC5290
:101950006A4B1B6803F2DC5302FB03F39A00D7F8CF
:101960001C321344C7F81C3237E0644B1B68B3F5D4
:10197000FA6F32DBD7F8103203FB03F35B00DA17A0
:10198000C7F8F830C7F8FC20D7E93E23002B06DA69
:10199000511E396343F11F037B63D7E90C234FF0DA
:1019A00000004FF000015811D91702460B461346AC
:1019B000C7F81432514B1B68A3F5FA624F4B1B68F2
:1019C000A3F5FA6302FB03F3002B00DA0F331B11BC
:1019D000C7F818320023C7F81C32D7F81832DA17C4
:1019E000C7F8F030C7F8F420D7E98823D7E93C4599
:1019F0002146511AB962294663EB0103FB62D7E91C
:101A00000A34C7E98234D7F81C32DA17C7F8E8304D
:101A1000C7F8EC20D7E98A23D7E93A452146511A7D
:101A20003962294663EB01037B62D7E90834C7E9D1
:101A30008034324B1A68D7F81432D21A304B1A61FC
:101A40002F4B1B7A012B61D12E4B1B680022C7F84C
:101A5000E030C7F8E420D7F80032D7E938452A4605
:101A600002FB03F2D7F80432214601FB03F31344CF
:101A7000D7F800222146A2FB0112C7F8B4210A467A
:101A8000C7F8B021D7F8B4211344C7F8B431D7E967
:101A90006C23002B07DA1C495118B96143F100038C
:101AA000FB61D7E906234FF000004FF00001500D15
:101AB00040EAC3205915D7E98223841AC7F8D840D1
:101AC00061EB0303C7F8DC30D7E93623002B08DAD3
:101AD00047F6FF715118396143F100037B61D7E983
:101AE00004234FF000004FF00001D00B40EA4340C8
:101AF000D91302460B46024BDA6060E01C0200205C
:101B0000F001002014020020FFFF1F002F4B1B6874
:101B10000022C7F8D030C7F8D420D7F80032D7E970
:101B200034452A4602FB03F2D7F80432214601FB72
:101B300003F31344D7F800222146A2FB0112C7F891
:101B4000AC210A46C7F8A821D7F8AC211344C7F83E
:101B5000AC31D7E96A23002B07DA1D495118B96067
:101B600043F10003FB60D7E902234FF000004FF080
:101B70000001500D40EAC3205915D7E98223841A89
:101B8000C7F8C84061EB0303C7F8CC30D7E932236C
:101B9000002B08DA41F6FF715118396043F1000358
:101BA0007B60D7E900234FF000004FF00001500B9D
:101BB00040EAC340591302460B46064BDA6000BFA9
:101BC00007F50D77BD46BDE8B00F70471402002041
:101BD000FFFF1F00F0010020B0B584B000AF7860B7
:101BE0007868FEF78FFC04460D46154B1B681846B7
:101BF000FEF788FC10A3D3E90023FEF727FE024678
:101C00000B4620462946FEF7F7FC02460B461046D7
:101C10001946FEF7C9FF0346FB6000E000BFFB6802
:101C20005A1EFA60002BF9D100BF00BF1037BD4625
:101C3000B0BD00BFAFF300800000000080842E41E3
:101C40000000002080B500AF294B03F580531B88AE
:101C5000002B4BD0264B03F580539A78244B03F589
:101C600080531B88DBB2D31ADBB25AB2204B03F588
:101C70008053DA701E4B03F5805393F90330002B29
:101C800009DA1B4B03F5805393F90330DBB2203B99
:101C9000DBB25BB204E0164B03F5805393F90330DB
:101CA000134A02F58052D370114B03F580531B8801
:101CB000013B9AB20E4B03F580531A800C4B03F58F
:101CC000805393F90330DB01094A1344194609484C
:101CD00008F088FE064B03F5805393F90330DB01CF
:101CE000034A13441946044808F025FF00BF80BD8D
:101CF0002402002008CD00082812002080B483B000
:101D000000AF78604FF06043D3F8803E03F00103EA
:101D1000002B13D04FF06043D3F8003E03F00103D3
:101D2000002B0BD000E000BF4FF060431B68002B7E
:101D3000F9D04FF060437A68D2B21A707B681846C7
:101D40000C37BD465DF8047B7047000090B587B046
:101D500004AF01F0CEFC00F005F900F063FD00F0E7
:101D60003BFD00F067F900F02FFA00F06DFA00F08B
:101D7000ABFA00F0D1FC00F0FFFC00F02BFB00F010
:101D800067FB00F0BFFB00F07DFC00F0FBF900F00A
:101D9000DBFA00F00BFC00F0F5FA00F03DFC01224C
:101DA00020214FF0904003F0E3FE012204215A4825
:101DB00003F0DEFE01224FF48051574803F0D8FEB5
:101DC000642001F00BFD4FF480725449544808F030
:101DD0007BF8534B5B6F1B681A68514B5B6F1B683A
:101DE00022F004021A607F214E4803F03BF80346BC
:101DF000002B04D04C4808F05DFE00BFFDE74B48C7
:101E000008F058FE4A4806F05FF90522494945485E
:101E100002F04AF800237B604FF000033B60012092
:101E200001F0DCFC7A68444B83FB02135911D31791
:101E3000CB1A4FF4FA7101FB03F3D31A002B2BD109
:101E40004FF480613D4803F0ABFE4FF480513B48B6
:101E500003F0A6FE374B1B881846364B5B881C46A2
:101E6000344B9B881A46334BDB881946314B1B8910
:101E7000029301910092234602463149314808F00D
:101E8000CFFC3048FEF7F4F903469AB24FF0FF3327
:101E90002C49234806F0E6FD7A682B4B83FB02139E
:101EA0009911D317CB1AC82101FB03F3D31A002BC6
:101EB0002ED1264804F0E8FCFFF7C4FE1D4B1B881A
:101EC0001946234808F08EFD224B1B78DBB2002B0D
:101ED0001ED0204B00221A701F4B1B6819461F484A
:101EE00008F080FDFFF7B6F80346002B0BD1FFF793
:101EF00077F887ED000A3868FEF726FB02460B46A6
:101F0000174808F06FFD144B1B680133124A136029
:101F10007B6801337B6082E700040048E017002003
:101F200010170020A812002024CD00083CCD000886
:101F3000A4150020F4180020D34D621000080048BA
:101F40005CCD0008001900201F85EB51741400209F
:101F5000B4CD0008001A0020E0180020C8CD000809
:101F6000E8CD000880B596B000AF07F11403442215
:101F70000021184608F0A6FD3B4600221A605A6070
:101F80009A60DA601A614FF4007004F0ABFC03460B
:101F9000002B01D000F0E2FD04F086FC244BD3F8C6
:101FA0009030234A23F01803C2F890301D237B6140
:101FB0004FF48033BB610123FB610123BB6201232A
:101FC000FB6200233B6360237B630223FB630323E9
:101FD0003B6405237B642023BB640723FB6402234B
:101FE0003B6502237B6507F11403184604F0D0FC1F
:101FF0000346002B01D000F0B1FD0F233B6003230B
:102000007B600023BB600023FB6000233B613B46F9
:102010000421184605F0D0F80346002B01D000F04B
:102020009DFD05F037FD00BF5837BD4680BD00BFA0
:102030000010024080B586B000AF3B4600221A6017
:102040005A609A60DA601A615A61474B474A1A60CF
:10205000454B4FF480225A60434B00229A60424B1A
:102060000022DA60404B01221A613F4B08225A617C
:102070003D4B00221A763C4B00225A763A4B052201
:10208000DA61394B002283F82020374B4FF4E862A5
:102090009A62354B4FF48062DA62334B012283F847
:1020A0003020314B00225A632F4B002283F8382016
:1020B0002D4801F0B7FD0346002B01D000F04EFD86
:1020C0002B4B3B6006237B600623BB607F23FB60BA
:1020D00004233B6100237B613B461946224802F002
:1020E00039F90346002B01D000F038FD214B3B604D
:1020F0000C237B603B4619461B4802F02BF9034634
:10210000002B01D000F02AFD1B4B3B6012237B60AB
:102110003B461946144802F01DF90346002B01D036
:1021200000F01CFD154B3B6018237B603B461946B5
:102130000D4802F00FF90346002B01D000F00EFD10
:102140000F4B3B604FF480737B603B46194606485B
:1021500002F000F90346002B01D000F0FFFC00BFA5
:102160001837BD4680BD00BFA812002000000450F3
:10217000040060080800900C1000C0100002B02598
:102180000020903680B500AF0D4B0E4A1A600C4B04
:1021900000221A710A4B00225A71094B00225A611F
:1021A000074B00229A61064B01221A62044802F092
:1021B000FDFF0346002B01D000F0D0FC00BF80BD26
:1021C000541300200030024080B500AF1B4B1C4A66
:1021D0001A601A4B1B4A5A60184B00229A60174B20
:1021E0000122DA60154B00221A61144B00225A6159
:1021F000124B00229A61114B0022DA610F4B002230
:102200001A620E4803F009FD0346002B01D000F0CE
:10221000A5FC0021094804F04FFA0346002B01D029
:1022200000F09CFC0021054804F091FA0346002BC5
:1022300001D000F093FC00BF80BD00BF78130020E8
:1022400000540040E49CD11080B500AF1B4B1C4AE9
:102250001A601A4B1B4A5A60184B00229A60174B9F
:102260000122DA60154B00221A61144B00225A61D8
:10227000124B00229A61114B0022DA610F4B0022AF
:102280001A620E4803F0C9FC0346002B01D000F08F
:1022900065FC0021094804F00FFA0346002B01D029
:1022A00000F05CFC0021054804F051FA0346002BC5
:1022B00001D000F053FC00BF80BD00BFCC13002054
:1022C00000580040E49CD11080B500AF1B4B1C4A65
:1022D0001A601A4B1B4A5A60184B00229A60174B1F
:1022E0000122DA60154B00221A61144B00225A6158
:1022F000124B00229A61114B0022DA610F4B4FF40E
:1023000000321A620D4803F088FC0346002B01D00E
:1023100000F024FC0021094804F0CEF90346002B0C
:1023200001D000F01BFC0021044804F010FA034621
:10233000002B01D000F012FC00BF80BD2014002053
:10234000005C0040E49CD11080B500AF0B4B0C4A00
:102350001A600A4B00225A60084B40F6FF72DA609E
:10236000064B40F6FF729A60044804F03CFA0346BC
:10237000002B01D000F0F2FB00BF80BD74140020E0
:102380000030004080B500AF104B114A1A600F4B6F
:1023900000225A600D4B7F229A600C4BFF22DA60BC
:1023A0000A4B00221A61094B00225A61074B002296
:1023B0009A61064B0022DA61044805F06DFC034681
:1023C000002B01D000F0CAFB00BF80BD84140020A8
:1023D0000028004080B500AF1B4B1C4A1A601A4B06
:1023E0004FF482725A60184B00229A60164B4FF4D9
:1023F0004072DA60144B00221A61134B00225A61BA
:10240000114B4FF400729A610F4B0022DA610E4BB0
:1024100000221A620C4B00225A620B4B00229A6275
:10242000094B0722DA62084B00221A63064B082286
:102430005A63054805F04EFD0346002B01D000F01D
:102440008DFB00BF80BD00BFA814002000300140FC
:1024500080B588B000AF07F1140300221A605A60FB
:102460009A603B1D00221A605A609A60DA60234B22
:10247000234A1A60214B00225A60204B00229A60A6
:102480001E4B4FF6FF72DA601C4B00221A611B4B89
:1024900000225A61194B00229A61184805F068FE23
:1024A0000346002B01D000F059FB00237B61002381
:1024B000BB610023FB6107F1140319460F4806F0C6
:1024C000FFF90346002B01D000F048FB00237B609E
:1024D0000123BB600023FB6000233B613B1D002206
:1024E0001946064805F0A2FF0346002B01D000F074
:1024F00035FB00BF2037BD4680BD00BF0C15002056
:10250000002C014080B588B000AF07F11403002211
:102510001A605A609A603B1D00221A605A609A60E5
:10252000DA60214B4FF080421A601F4B00225A6044
:102530001D4B00229A601C4B4FF0FF32DA601A4BA1
:1025400000221A61184B00229A61174805F010FE0C
:102550000346002B01D000F001FB00237B61002328
:10256000FB6107F1140319460F4806F0A9F9034669
:10257000002B01D000F0F2FA00237B600123BB6046
:102580000023FB6000233B613B1D002219460648E7
:1025900005F04CFF0346002B01D000F0DFFA00BF2E
:1025A0002037BD4680BD00BF5815002080B584B0DF
:1025B00000AF3B1D00221A605A609A60144B154A06
:1025C0001A60134B9F225A60114B00229A60104BE5
:1025D0004CF24F32DA600E4B80229A610C4805F0C3
:1025E0001CFD0346002B01D000F0B8FA20237B60CD
:1025F0000023FB603B1D1946054806F061F90346C0
:10260000002B01D000F0AAFA00BF1037BD4680BDF4
:10261000A41500200010004080B584B000AF3B1D21
:1026200000221A605A609A60144B154A1A60134BC4
:1026300000225A60114B00229A60104B4FF6FF7235
:10264000DA600E4B00229A610C4805F0E6FC034666
:10265000002B01D000F082FA00237B600023FB6096
:102660003B1D1946054806F02BF90346002B01D007
:1026700000F074FA00BF1037BD4680BDF015002091
:102680000014004080B584B000AF3B4600221A60C1
:102690005A609A60DA601E4B1E4A1A601C4B002278
:1026A0005A601B4B00229A60194B4FF6FF72DA609A
:1026B000174B00221A61164B00225A61144B00225C
:1026C0009A61134805F0A9FC0346002B01D000F0E5
:1026D00045FA0F4805F04CFD0346002B01D000F0F1
:1026E0003DFA00233B6001237B600023BB60002395
:1026F000FB603B4600221946054805F097FE03465D
:10270000002B01D000F02AFA00BF1037BD4680BD73
:102710003C1600200044014080B500AF144B154A20
:102720001A60134B4FF4E1325A60114B00229A6049
:102730000F4B0022DA600E4B00221A610C4B0C2268
:102740005A610B4B00229A61094B0022DA61084B57
:1027500000221A62064B00225A62054806F034F93C
:102760000346002B01D000F0F9F900BF80BD00BF87
:10277000881600200038014080B500AF144B154A80
:102780001A60134B4FF4E1325A60114B00229A60E9
:102790000F4B0022DA600E4B00221A610C4B0C2208
:1027A0005A610B4B00229A61094B0022DA61084BF7
:1027B00000221A62064B00225A62054806F004F90C
:1027C0000346002B01D000F0C9F900BF80BD00BF57
:1027D000101700200044004080B582B000AF104BBD
:1027E0009B6C0F4A43F0010393640D4B9B6C03F009
:1027F00001037B607B68002200210B2002F09FFC1C
:102800000B2002F0B8FC00220021102002F097FCFF
:10281000102002F0B0FC00BF0837BD4680BD00BFED
:102820000010024080B58AB000AF07F11403002207
:102830001A605A609A60DA601A616B4BDB6C6A4A04
:1028400043F00403D364684BDB6C03F004033B6187
:102850003B69654BDB6C644A43F08003D364624B95
:10286000DB6C03F08003FB60FB685F4BDB6C5E4A54
:1028700043F00103D3645C4BDB6C03F00103BB60EA
:10288000BB68594BDB6C584A43F00203D364564B88
:10289000DB6C03F002037B607B68534BDB6C524ABA
:1028A00043F00803D364504BDB6C03F008033B6038
:1028B0003B68002220214FF0904003F059F900229C
:1028C00041F20401494803F053F900224FF4E0516A
:1028D000474803F04DF920237B610123BB610223AC
:1028E000FB6100233B6207F1140319464FF090404F
:1028F00002F0C4FF20237B614FF48813BB610223E5
:10290000FB6107F114031946394802F0B7FF42F2A0
:1029100003037B614FF48813BB610223FB6107F162
:1029200014031946314802F0A9FF04237B610123F7
:10293000BB610023FB6100233B6207F114031946CE
:102940002A4802F09BFF4FF480537B610123BB6157
:102950000223FB6100233B6207F11403194623485D
:1029600002F08CFF4FF400737B610023BB610023F6
:10297000FB6107F1140319461D4802F07FFF4FF475
:10298000E0537B610123BB610023FB6100233B62B9
:1029900007F114031946164802F070FF04237B6107
:1029A0000023BB610023FB6107F1140319461148A2
:1029B00002F064FF4FF400737B614FF48813BB6136
:1029C0000023FB6107F114031946084802F056FF83
:1029D00000220021172002F0B2FB172002F0CBFBEF
:1029E00000BF2837BD4680BD0010024000040048EB
:1029F00000080048000C004880B586B000AFF860C1
:102A0000B9607A6000237B6109E0BB685A1CBA6038
:102A10001B781846FFF772F97B6901337B617A698D
:102A20007B689A42F1DB7B6818461837BD4680BD4B
:102A300080B582B000AF78600B467B807B88012B2D
:102A40003FD97B88244A0021D1542349234807F0E9
:102A5000C9FF214B1B78242B33D1214B03F5805325
:102A60001B881F2B2AD81E4B03F580531B8801336C
:102A70009AB21B4B03F580531A80194B03F5805310
:102A80009B781F2B04D9164B03F5805300229A70B4
:102A9000134B03F580539B78DB01114A13440E4915
:102AA000184608F048F80E4B03F580539B78013325
:102AB000DAB20B4B03F580539A7002E0094807F035
:102AC000F9FF4FF480720449074807F0FDF900BF91
:102AD0000837BD4680BD00BFE0170020FCCD0008D0
:102AE0002402002004CE00081017002080B483B018
:102AF00000AF78607B681B68104A934218D1104B76
:102B00001A88104B1A800E4B5A880F4B1A800C4BA8
:102B10009A880E4B1A800A4BDA880D4B1A80084BA4
:102B20001A890C4B1A800C4B1B6801330A4A13603C
:102B300000BF0C37BD465DF8047B704700000450B1
:102B4000F4180020E4180020E6180020E8180020FF
:102B5000EA180020EC180020F018002080B400AF24
:102B600072B600BF00BFFDE780B483B000AF0F4B6B
:102B70001B6E0E4A43F0010313660C4B1B6E03F0F1
:102B800001037B607B68094B9B6D084A43F08053CF
:102B90009365064B9B6D03F080533B603B6800BF21
:102BA0000C37BD465DF8047B704700BF0010024043
:102BB00080B5A2B000AF786007F1740300221A60FC
:102BC0005A609A60DA601A6107F1140360220021EA
:102BD000184607F077FF7B681B684B4A934240F02A
:102BE0008F804FF480437B614FF08053BB6603239B
:102BF000BB610523FB6110233B6207237B62022339
:102C0000BB620423FB624FF080733B6307F1140344
:102C1000184604F0F5FC0346002B01D0FFF79EFF99
:102C20003A4BDB6C394A43F40053D364374BDB6CCB
:102C300003F400533B613B69344BDB6C334A43F094
:102C40000403D364314BDB6C03F00403FB60FB68CB
:102C50002E4BDB6C2D4A43F00103D3642B4BDB6C12
:102C600003F00103BB60BB681E237B670B23BB67BC
:102C70000023FB6707F174031946254802F0FEFDA7
:102C800010237B670B23BB670023FB6707F17403EB
:102C900019464FF0904002F0F1FD1E4B1E4A1A609B
:102CA0001C4B00225A601B4B00229A60194B0022D9
:102CB000DA60184B80221A61164B4FF480725A6109
:102CC000144B4FF480629A61124B2022DA61114B4F
:102CD00000221A620F4802F05BFB0346002B01D072
:102CE000FFF73CFF7B680B4ADA640A4A7B68936211
:102CF00000220021122002F022FA122002F03BFAF8
:102D000000BF8837BD4680BD00000450001002405F
:102D1000000800480C1300200800024080B485B071
:102D200000AF78607B681B680A4A93420BD10A4B5C
:102D30009B6C094A43F480539364074B9B6C03F4E8
:102D40008053FB60FB6800BF1437BD465DF8047B11
:102D5000704700BF003002400010024080B5A6B0AE
:102D600000AF786007F1840300221A605A609A600D
:102D7000DA601A6107F1240360220021184607F087
:102D8000A1FE7B681B68734A93423BD140237B6260
:102D900000237B6507F12403184604F031FC034649
:102DA000002B01D0FFF7DAFE6B4BDB6C6A4A43F075
:102DB0000203D364684BDB6C03F002033B623B6AA3
:102DC000C023C7F884301223C7F888300023C7F81F
:102DD0008C300323C7F890300423C7F8943007F1F0
:102DE000840319465D4802F049FD5B4B9B6D5A4ACE
:102DF00043F400139365584B9B6D03F40013FB6180
:102E0000FB69A3E07B681B68554A93423CD1802351
:102E10007B620023BB6507F12403184604F0F0FB36
:102E20000346002B01D0FFF799FE4B4BDB6C4A4A5F
:102E300043F00203D364484BDB6C03F00203BB6135
:102E4000BB694FF48843C7F884301223C7F8883031
:102E50000023C7F88C300323C7F890300423C7F849
:102E6000943007F1840319463C4802F007FD3A4BC1
:102E70009B6D394A43F480039365374B9B6D03F494
:102E800080037B617B6961E07B681B68354A934204
:102E90005CD14FF480737B620023FB6507F1240350
:102EA000184604F0ADFB0346002B01D0FFF756FE99
:102EB000294BDB6C284A43F00403D364264BDB6CBC
:102EC00003F004033B613B69234BDB6C224A43F074
:102ED0000203D364204BDB6C03F00203FB60FB684E
:102EE0000123C7F884301223C7F888300023C7F8BD
:102EF0008C300323C7F890300423C7F8943007F1CF
:102F000084031946184802F0B9FC1023C7F884302E
:102F10001223C7F888300023C7F88C300323C7F882
:102F200090300423C7F8943007F1840319460B4806
:102F300002F0A4FC084B9B6D074A43F40003936521
:102F4000054B9B6D03F40003BB60BB6800BF983763
:102F5000BD4680BD005400400010024000040048FF
:102F600000580040005C00400008004880B59AB05E
:102F700000AF786007F1080360220021184607F0CF
:102F8000A1FD7B681B680F4A934217D14FF40033B1
:102F9000BB604FF400737B6607F10803184604F02A
:102FA0002FFB0346002B01D0FFF7D8FD064BD3F8CB
:102FB0009030054A43F40043C2F8903000BF6837B0
:102FC000BD4680BD002800400010024080B58AB098
:102FD00000AF786007F1140300221A605A609A600B
:102FE000DA601A617B681B68174A934228D1174B35
:102FF0001B6E164A43F480531366144B1B6E03F486
:1030000080533B613B69114BDB6C104A43F0010379
:10301000D3640E4BDB6C03F00103FB60FB68C2233F
:103020007B610223BB610023FB6103233B62052319
:103030007B6207F1140319464FF0904002F01EFC2A
:1030400000BF2837BD4680BD00300140001002405F
:1030500080B58CB000AF786007F11C0300221A60C5
:103060005A609A60DA601A617B681B682F4A934243
:103070002AD12F4B1B6E2E4A43F4006313662C4B50
:103080001B6E03F40063BB61BB69294BDB6C284AF0
:1030900043F00103D364264BDB6C03F001037B6137
:1030A0007B694FF48073FB6102233B6200237B62E8
:1030B0000023BB620123FB6207F11C0319464FF09A
:1030C000904002F0DBFB2DE07B681B68B3F1804F82
:1030D00028D1174B9B6D164A43F001039365144B9F
:1030E0009B6D03F001033B613B69114BDB6C104AA4
:1030F00043F00103D3640E4BDB6C03F00103FB6070
:10310000FB680123FB6102233B6200237B620023F7
:10311000BB620123FB6207F11C0319464FF090408C
:1031200002F0ACFB00BF3037BD4680BD002C014033
:103130000010024080B58CB000AF786007F11C032E
:1031400000221A605A609A60DA601A617B681B6814
:10315000314A934214D1314B9B6D304A43F01003F6
:1031600093652E4B9B6D03F01003BB61BB6900227E
:103170000021362001F0E3FF362001F0FCFF47E09C
:103180007B681B68264A934214D1244B9B6D234ACB
:1031900043F020039365214B9B6D03F020037B617B
:1031A0007B6900220021372001F0C9FF372001F0A0
:1031B000E2FF2DE07B681B681A4A934228D1174B27
:1031C0001B6E164A43F400331366144B1B6E03F454
:1031D00000333B613B69114BDB6C104A43F0020347
:1031E000D3640E4BDB6C03F00203FB60FB684FF40F
:1031F0008073FB6102233B6200237B620023BB627E
:103200000E23FB6207F11C031946074802F036FB48
:1032100000BF3037BD4680BD0010004000100240A6
:1032200000140040004401400004004880B5A4B0F0
:1032300000AF786007F17C0300221A605A609A6040
:10324000DA601A6107F11C0360220021184607F0BA
:1032500039FC7B681B685F4A934244D10123FB61C0
:103260000023FB6307F11C03184604F0C9F9034669
:10327000002B01D0FFF772FC574B1B6E564A43F4EC
:1032800080431366544B1B6E03F48043BB61BB69E0
:10329000514BDB6C504A43F00103D3644E4BDB6C63
:1032A00003F001037B617B694FF4C063FB6702237A
:1032B000C7F880300023C7F884300323C7F888306C
:1032C0000723C7F88C3007F17C0319464FF0904074
:1032D00002F0D4FA00220021252001F030FF252041
:1032E00001F049FF71E07B681B683C4A93426CD156
:1032F0000223FB6100233B6407F11C03184604F022
:103300007FF90346002B01D0FFF728FC324B9B6D61
:10331000314A43F4003393652F4B9B6D03F4003324
:103320003B613B692C4BDB6C2B4A43F00103D364BC
:10333000294BDB6C03F00103FB60FB680C23FB678C
:103340000223C7F880300023C7F884300323C7F86E
:1033500088300723C7F88C3007F17C0319464FF0FB
:10336000904002F08BFA1E4B1E4A1A601C4B022240
:103370005A601B4B00229A60194B0022DA60184BEE
:1033800080221A61164B00225A61154B00229A6165
:10339000134B0022DA61124B4FF480521A6210482C
:1033A00001F0F6FF0346002B01D0FFF7D7FB7B6847
:1033B0000B4A5A670A4A7B68936200220021262042
:1033C00001F0BDFE262001F0D6FE00BF9037BD46BD
:1033D00080BD00BF003801400010024000440040A2
:1033E000981700206C00024080B400AF00BFFDE7DA
:1033F00080B400AF00BFFDE780B400AF00BFFDE7C1
:1034000080B400AF00BFFDE780B400AF00BFFDE7B0
:1034100080B400AF00BFBD465DF8047B704780B448
:1034200000AF00BFBD465DF8047B704780B400AFBD
:1034300000BFBD465DF8047B7047000080B500AF5B
:10344000094B1A68094BA3FB02139B094FF47A71CD
:1034500001FB03F3D31A002B02D1054B01221A7092
:1034600000F09CF900BF80BD081A0020D34D621007
:10347000001A002080B500AF024802F020F900BF1A
:1034800080BD00BF0C13002080B500AF024802F0E1
:1034900016F900BF80BD00BF9817002080B500AFAF
:1034A000024800F085FD00BF80BD00BFA8120020CB
:1034B00080B500AF202002F08DFB4FF4007002F0C9
:1034C00089FB00BF80BD000080B500AF024805F059
:1034D00053FB00BF80BD00BF8816002080B500AF41
:1034E000024805F049FB00BF80BD00BF1017002057
:1034F00080B500AF01224FF40061044802F038FBB0
:10350000034804F08CFE00BF80BD00BF00080048E7
:10351000A415002080B500AF024804F080FE00BF73
:1035200080BD00BFF015002080B400AF0123184615
:10353000BD465DF8047B704780B582B000AF78600F
:10354000396007F0CBFA034616221A604FF0FF33BA
:1035500018460837BD4680BD80B582B000AF7860A0
:103560004FF0FF317868FFF7E7FF00BFFDE780B558
:1035700086B000AFF860B9607A6000237B610AE032
:10358000AFF300800146BB685A1CBA60CAB21A7019
:103590007B6901337B617A697B689A42F0DB7B68E7
:1035A00018461837BD4680BD80B483B000AF786040
:1035B0004FF0FF3318460C37BD465DF8047B70476B
:1035C00080B483B000AF786039603B684FF400523C
:1035D0005A60002318460C37BD465DF8047B7047DF
:1035E00080B483B000AF7860012318460C37BD4625
:1035F0005DF8047B704780B485B000AFF860B960B7
:103600007A60002318461437BD465DF8047B704786
:1036100080B586B000AF7860144A154BD31A7B6131
:103620007B693B61134B1B68002B02D1114B124A83
:103630001A60104B1A687B6813443A699A4207D2A1
:1036400007F04CFA03460C221A604FF0FF3309E0F2
:10365000084B1B68FB60074B1A687B681344054ADC
:103660001360FB6818461837BD4680BD0000012076
:1036700000040000041A0020581B002080B400AF92
:10368000064BD3F88830054A43F47003C2F88830FB
:1036900000BFBD465DF8047B704700BF00ED00E051
:1036A000DFF834D0FFF7EAFF0C480D490D4A00233C
:1036B00002E0D458C4500433C4188C42F9D30A4AE7
:1036C0000A4C002301E013600432A242FBD307F04E
:1036D0000BFAFEF73BFBFEE7000001200000002094
:1036E000D4010020E0D10008D4010020581B0020A4
:1036F000FEE780B582B000AF0023FB71032001F02C
:1037000013FD0F2000F00EF80346002B02D001231A
:10371000FB7101E0FFF728FAFB7918460837BD4630
:1037200080BD000080B584B000AF78600023FB73DB
:10373000174B1B78002B23D0164B1A68144B1B78A1
:1037400019464FF47A73B3FBF1F3B2FBF3F3184667
:1037500001F01FFD0346002B0FD17B680F2B09D80A
:10376000002279684FF0FF3001F0E9FC0A4A7B68DB
:10377000136007E00123FB7304E00123FB7301E006
:103780000123FB73FB7B18461037BD4680BD00BF8D
:1037900008000020000000200400002080B400AFDA
:1037A000064B1B781A46064B1B681344044A1360E9
:1037B00000BFBD465DF8047B704700BF08000020D5
:1037C000081A002080B400AF034B1B681846BD46A2
:1037D0005DF8047B704700BF081A002080B584B0F4
:1037E00000AF7860FFF7EEFFB8607B68FB60FB68B6
:1037F000B3F1FF3F05D00A4B1B781A46FB68134410
:10380000FB6000BFFFF7DEFF0246BB68D31AFA6811
:103810009A42F7D800BF00BF1037BD4680BD00BF39
:103820000800002080B483B000AF786039607B6806
:103830009B6823F47C123B681A437B689A6000BF44
:103840000C37BD465DF8047B704780B483B000AF91
:10385000786039607B689B6823F0E0723B681A43AC
:103860007B689A6000BF0C37BD465DF8047B7047EB
:1038700080B483B000AF78607B689B6803F0E0732E
:1038800018460C37BD465DF8047B704780B487B09E
:1038900000AFF860B9607A603B60FB6860331A463D
:1038A000BB689B0013447B617B691A68084B13401B
:1038B0007A6802F0F8413A680A43134343F0004241
:1038C0007B691A6000BF1C37BD465DF8047B7047FA
:1038D00000F0FF0380B485B000AF786039607B688A
:1038E00060331A463B689B001344FB60FB681B680F
:1038F00003F0F84318461437BD465DF8047B704763
:1039000080B487B000AFF860B9607A60FB6860335C
:103910001A46BB689B0013447B617B691B6823F0DC
:1039200000427B681A437B691A6000BF1C37BD46A2
:103930005DF8047B704780B483B000AF78607B682B
:10394000DB6803F44063002B01D1012300E0002376
:1039500018460C37BD465DF8047B704780B487B0CD
:1039600000AFF860B9607A60FB6830331A46BB6814
:103970001B0A9B0003F00C0313447B617B691A68EC
:10398000BB6803F01F031F2101FA03F3DB431A4056
:103990007B689B0E03F01F01BB6803F01F0301FA55
:1039A00003F31A437B691A6000BF1C37BD465DF8FC
:1039B000047B704780B483B000AF78607B68DB6CB9
:1039C00003F0C003002B01D1012300E000231846BF
:1039D0000C37BD465DF8047B704780B487B000AFFC
:1039E000F860B9607A60FB6814331A46BB685B0EF6
:1039F0009B0003F0040313447B617B691A68BB6876
:103A00001B0D03F01F03072101FA03F3DB431A40E8
:103A1000BB681B0D03F01F03796801FA03F31A4317
:103A20007B691A6000BF1C37BD465DF8047B704798
:103A300080B485B000AFF860B9607A60FB68D3F8F5
:103A4000B020BB68C3F31203DB431A407B6803F06A
:103A500018030849D940BB680B40C3F312031A434B
:103A6000FB68C3F8B02000BF1437BD465DF8047B87
:103A7000704700BFFFFF070080B483B000AF7860DD
:103A80007B689B6823F0204323F03F037A689360B0
:103A900000BF0C37BD465DF8047B704780B483B02F
:103AA00000AF78607B689B6803F00053B3F1005F60
:103AB00001D1012300E0002318460C37BD465DF814
:103AC000047B704780B483B000AF78607B689B68EC
:103AD00023F0104323F03F0343F080527B689A6049
:103AE00000BF0C37BD465DF8047B704780B483B0DF
:103AF00000AF78607B689B6803F08053B3F1805F10
:103B000001D1012300E0002318460C37BD465DF8C3
:103B1000047B704780B483B000AF78607B689B689B
:103B200023F0004323F03F0343F001027B689A60D7
:103B300000BF0C37BD465DF8047B704780B483B08E
:103B400000AF78607B689B6823F0004323F03F035D
:103B500043F002027B689A6000BF0C37BD465DF8F7
:103B6000047B704780B483B000AF78607B689B684B
:103B700003F00103012B01D1012300E000231846CB
:103B80000C37BD465DF8047B704780B483B000AF4E
:103B900078607B689B6803F00203022B01D101234C
:103BA00000E0002318460C37BD465DF8047B7047E3
:103BB00080B483B000AF78607B689B6823F00043DB
:103BC00023F03F0343F004027B689A6000BF0C3788
:103BD000BD465DF8047B704780B483B000AF786069
:103BE0007B689B6803F00403042B01D1012300E0F0
:103BF000002318460C37BD465DF8047B704780B43F
:103C000083B000AF78607B689B6803F00803082BE3
:103C100001D1012300E0002318460C37BD465DF8B2
:103C2000047B704780B588B000AF78600023FB77D5
:103C30000023FB607B68002B01D1012326E17B6818
:103C40001B69002B7B685B6D002B09D17868FEF740
:103C5000AFFF7B6800229A657B68002283F85020C2
:103C60007B681B681846FFF719FF0346002B04D03A
:103C70007B681B681846FFF7FFFE7B681B681846C9
:103C8000FFF734FF0346002B15D17B681B681846ED
:103C9000FFF718FF7F4B1B689B097F4AA2FB03239A
:103CA0009B0901335B00FB6002E0FB68013BFB60AA
:103CB000FB68002BF9D17B681B681846FFF716FFDD
:103CC0000346002B0DD17B685B6D43F010027B68CF
:103CD0005A657B689B6D43F001027B689A650123FE
:103CE000FB777B681B681846FFF776FF78617B6877
:103CF0005B6D03F01003002B40F0BF807B69002B4D
:103D000040F0BB807B685B6D23F4817343F002025B
:103D10007B685A657B681B681846FFF723FF0346DC
:103D2000002B0BD15D48FFF71DFF0346002B05D18B
:103D30007B685B6819465A48FFF774FD7B685B7EB9
:103D40005A037B685B6B1A437B68DB681A437B68AA
:103D50009B681A437B6893F820301B041343BB61B4
:103D60007B6893F82030012B06D17B685B6A013BAE
:103D70005B04BA691343BB617B689B6A002B09D063
:103D80007B689B6A03F470727B68DB6A1343BA69D1
:103D90001343BB617B681B68DA68424B13407A6847
:103DA0001268B9690B43D3607B681B681846FFF73C
:103DB00026FF38617B69002B3DD13B69002B3AD14E
:103DC0007B681B7E9A037B6893F830305B0013435B
:103DD000BB617B681B68DB6823F4804323F002032C
:103DE0007A681268B9690B43D3607B6893F83830FE
:103DF000012B18D17B681B681B6923F4FF6323F038
:103E000004037A68D16B7A68126C11437A68526C39
:103E100011437A68926C0A431A437B681B6842F02C
:103E200001021A6107E07B681B681A697B681B68DE
:103E300022F001021A617B681B69012B0CD17B689F
:103E40001B681B6B23F00F017B68DB695A1E7B68C4
:103E50001B680A431A6307E07B681B681A6B7B6860
:103E60001B6822F00F021A637B685B6D23F003036B
:103E700043F001027B685A6507E07B685B6D43F0A5
:103E800010027B685A650123FB77FB7F18462037B9
:103E9000BD4680BD00000020632D3E05000004509B
:103EA0000003045007C0F0FF80B586B000AFF86093
:103EB000B9607A60FB681B681846FFF78DFE034601
:103EC000002B67D1FB6893F85030012B01D10223FE
:103ED00063E0FB68012283F85020F86800F01CFEC4
:103EE0000346FB75FB7D002B4FD1FB685B6D23F414
:103EF000706323F0010343F48072FB685A65FB682A
:103F00005B6D03F48053002B06D0FB689B6D23F0A0
:103F10000602FB689A6502E0FB6800229A65FB686E
:103F2000DB6C204ADA62FB68DB6C1F4A1A63FB68B1
:103F3000DB6C1E4A5A63FB681B681C221A60FB6814
:103F4000002283F85020FB681B685A68FB681B68D6
:103F500042F010025A60FB681B68DA68FB681B6855
:103F600042F00102DA60FB68D86CFB681B684033E2
:103F70001946BA687B6801F0C3FA0346FB75FB6813
:103F80001B681846FFF714FE06E0FB68002283F862
:103F9000502001E00223FB75FB7D18461837BD4613
:103FA00080BD00BFE34C0008BB4D0008D74D0008A2
:103FB00080B588B000AF78600023FB617B681B6828
:103FC0001B68BB617B681B685B687B61BB6903F036
:103FD0000203002B17D07B6903F00203002B12D0E1
:103FE0007B685B6D03F01003002B05D17B685B6D74
:103FF00043F400627B685A65786800F0BBFF7B6819
:104000001B6802221A60BB6903F00403002B04D072
:104010007B6903F00403002B09D1BB6903F008039B
:10402000002B5ED07B6903F00803002B59D07B681E
:104030005B6D03F01003002B05D17B685B6D43F4CF
:1040400000727B685A657B681B681846FFF773FC33
:104050000346002B3ED07B681B68DB683B613B69F5
:1040600003F40053002B35D17B681B681B6803F0F9
:104070000803082B2ED17B681B681846FFF7ACFDA0
:104080000346002B1AD17B681B685A687B681B6843
:1040900022F00C025A607B685B6D23F480727B68AF
:1040A0005A657B685B6D03F48053002B12D17B68EB
:1040B0005B6D43F001027B685A650BE07B685B6DCA
:1040C00043F010027B685A657B689B6D43F00102E8
:1040D0007B689A657868FEF709FD7B681B680C228F
:1040E0001A60BB6903F02003002B04D07B6903F046
:1040F0002003002B09D1BB6903F04003002B72D0D1
:104100007B6903F04003002B6DD07B685B6D03F08F
:104110001003002B05D17B685B6D43F400527B6874
:104120005A657B681B681846FFF744FCF8607B689B
:104130001B681846FFF7FFFBB8607B681B68DB68ED
:104140003B61FB68002B47D03B6903F00073002BF9
:1041500007D0BB68002B3FD03B6903F40053002B12
:104160003AD17B681B681B6803F04003402B33D1B6
:104170003B6903F40013002B2ED17B681B681846A3
:10418000FFF73DFD0346002B1AD17B681B685A6878
:104190007B681B6822F060025A607B685B6D23F4C9
:1041A00080527B685A657B685B6D03F48073002BDB
:1041B00012D17B685B6D43F001027B685A650BE0AE
:1041C0007B685B6D43F010027B685A657B689B6D72
:1041D00043F001027B689A65786800F0A3FE7B6873
:1041E0001B6860221A60BB6903F08003002B11D0AA
:1041F0007B6903F08003002B0CD07B685B6D43F47C
:1042000080327B685A65786800F090F87B681B689C
:1042100080221A60BB6903F48073002B12D07B6983
:1042200003F48073002B0DD07B685B6D43F4003288
:104230007B685A65786800F089FE7B681B684FF4DC
:1042400080721A60BB6903F40073002B12D07B6983
:1042500003F40073002B0DD07B685B6D43F4802268
:104260007B685A65786800F07BFE7B681B684FF4BA
:1042700000721A60BB6903F01003002B2AD07B691F
:1042800003F01003002B25D07B685B6B002B02D161
:104290000123FB6108E07B681B68DB6803F0010316
:1042A000002B01D00123FB61FB69012B0ED17B6840
:1042B0005B6D43F480627B685A657B689B6D43F05D
:1042C00002027B689A65786800F03AF87B681B68A0
:1042D00010221A60BB6903F48063002B18D07B693D
:1042E00003F48063002B13D07B685B6D43F4804242
:1042F0007B685A657B689B6D43F008027B689A6512
:104300007B681B684FF480621A60786800F014FEC6
:1043100000BF2037BD4680BD80B483B000AF786059
:1043200000BF0C37BD465DF8047B704780B483B096
:1043300000AF786000BF0C37BD465DF8047B704766
:1043400080B483B000AF786000BF0C37BD465DF825
:10435000047B704780B5B6B000AF78603960002349
:1043600087F8D7300023BB607B6893F85030012B6F
:1043700001D10223BBE37B68012283F850207B68D4
:104380001B681846FFF728FC0346002B40F0A0836B
:104390003B685B68C7F8D0303B685B68052B24D866
:1043A0003B685B68023B032B1BD801A252F823F049
:1043B000C1430008C9430008D1430008D94300089D
:1043C0000C23C7F8D03010E01223C7F8D0300CE02F
:1043D0001823C7F8D03008E04FF48073C7F8D03006
:1043E00003E00623C7F8D03000BF7B6818683B683D
:1043F0001B681A46D7F8D010FFF7B0FA7B681B6825
:104400001846FFF7E9FBC7F8CC007B681B68184625
:10441000FFF7F5FBC7F8C800D7F8CC30002B40F009
:10442000A481D7F8C830002B40F09F817B681868C2
:104430003B6819683B689B681A46FFF7CEFA3B68F1
:104440005A697B681B68DB68DB0803F003035B00C9
:1044500002FA03F3C7F8C4303B681B69042B0AD087
:104460007B6818683B6819693B681A68D7F8C430DC
:10447000FFF70CFA79E17B681B6800211846FFF70B
:1044800029FA0346C3F31203002B0AD17B681B6889
:1044900000211846FFF71EFA03469B0E03F01F0289
:1044A0001EE07B681B6800211846FFF713FA0346DD
:1044B000C7F8B830D7F8B83093FAA3F3C7F8B430D8
:1044C000D7F8B430C7F8BC30D7F8BC30002B01D1D6
:1044D000202304E0D7F8BC30B3FA83F3DBB21A46EA
:1044E0003B681B68C3F31203002B05D13B681B68B4
:1044F0009B0E03F01F0318E03B681B68C7F8AC3045
:10450000D7F8AC3093FAA3F3C7F8A830D7F8A8309F
:10451000C7F8B030D7F8B030002B01D1202304E029
:10452000D7F8B030B3FA83F3DBB29A4206D17B6896
:104530001B68002200211846FFF7E2F97B681B6820
:1045400001211846FFF7C6F90346C3F31203002BF7
:104550000AD17B681B6801211846FFF7BBF90346A7
:104560009B0E03F01F021EE07B681B6801211846AA
:10457000FFF7B0F90346C7F8A030D7F8A03093FA98
:10458000A3F3C7F89C30D7F89C30C7F8A430D7F80D
:10459000A430002B01D1202304E0D7F8A430B3FAD3
:1045A00083F3DBB21A463B681B68C3F31203002B8C
:1045B00005D13B681B689B0E03F01F0318E03B68A6
:1045C0001B68C7F89430D7F8943093FAA3F3C7F870
:1045D0009030D7F89030C7F89830D7F89830002B43
:1045E00001D1202304E0D7F89830B3FA83F3DBB28B
:1045F0009A4206D17B681B68002201211846FFF70A
:104600007FF97B681B6802211846FFF763F90346B0
:10461000C3F31203002B0AD17B681B6802211846E2
:10462000FFF758F903469B0E03F01F021EE07B685C
:104630001B6802211846FFF74DF90346C7F888307A
:10464000D7F8883093FAA3F3C7F88430D7F88430CA
:10465000C7F88C30D7F88C30002B01D1202304E030
:10466000D7F88C30B3FA83F3DBB21A463B681B6889
:10467000C3F31203002B05D13B681B689B0E03F0AC
:104680001F0314E03B681B68FB67FB6F93FAA3F3FF
:10469000BB67BB6FC7F88030D7F88030002B01D1E3
:1046A000202304E0D7F88030B3FA83F3DBB29A42D8
:1046B00006D17B681B68002202211846FFF720F90B
:1046C0007B681B6803211846FFF704F90346C3F310
:1046D0001203002B0AD17B681B6803211846FFF7E1
:1046E000F9F803469B0E03F01F0217E07B681B6876
:1046F00003211846FFF7EEF803463B673B6F93FA3A
:10470000A3F3FB66FB6E7B677B6F002B01D120233D
:1047100003E07B6FB3FA83F3DBB21A463B681B6896
:10472000C3F31203002B05D13B681B689B0E03F0FB
:104730001F0311E03B681B687B667B6E93FAA3F353
:104740003B663B6EBB66BB6E002B01D1202303E0B2
:10475000BB6EB3FA83F3DBB29A4206D17B681B6867
:10476000002203211846FFF7CBF87B681B68184628
:10477000FFF7F8F90346002B40F040817B6818688A
:104780003B6819683B68DB681A46FFF751F93B68DC
:10479000DB688F4A934240F031817B6818683B6840
:1047A0001B68C3F31203002B0BD13B681B689B0EE5
:1047B000013303F01F03092B94BF01230023DBB255
:1047C00019E03B681B68BB65BB6D93FAA3F37B657F
:1047D0007B6DFB65FB6D002B01D1202303E0FB6D9E
:1047E000B3FA83F3DBB2013303F01F03092B94BF49
:1047F00001230023DBB2002B79D03B681B68C3F395
:104800001203002B07D13B681B689B0E01339B06EC
:1048100003F0F84215E03B681B68FB64FB6C93FAFD
:10482000A3F3BB64BB6C3B653B6D002B01D1202324
:1048300003E03B6DB3FA83F3DBB201339B0603F075
:10484000F8423B681B68C3F31203002B09D13B6895
:104850001B689B0E013303F01F03012101FA03F3D0
:1048600017E03B681B683B643B6C93FAA3F3FB6364
:10487000FB6B7B647B6C002B01D1202303E07B6C02
:10488000B3FA83F3DBB2013303F01F03012101FA12
:1048900003F342EA03013B681B68C3F31203002BD6
:1048A0000AD13B681B689B0E013303F01F021346BD
:1048B0005B0013441B0518E03B681B687B637B6B44
:1048C00093FAA3F33B633B6BBB63BB6B002B01D140
:1048D000202303E0BB6BB3FA83F3DBB2013303F0B5
:1048E0001F0213465B0013441B050B4381E03B682A
:1048F0001B68C3F31203002B07D13B681B689B0E98
:1049000001339B0603F0F84215E03B681B68BB626D
:10491000BB6A93FAA3F37B627B6AFB62FB6A002BA0
:1049200001D1202303E0FB6AB3FA83F3DBB2013346
:104930009B0603F0F8423B681B68C3F31203002B8D
:1049400009D13B681B689B0E013303F01F03012153
:1049500001FA03F317E03B681B68FB61FB6993FAFC
:10496000A3F3BB61BB693B623B6A002B01D12023EF
:1049700003E03B6AB3FA83F3DBB2013303F01F03B6
:10498000012101FA03F342EA03013B681B68C3F308
:104990001203002B0DD13B681B689B0E013303F003
:1049A0001F0213465B0013441E3B1B0543F00073BC
:1049B0001EE03B681B683B613B6993FAA3F3FB6015
:1049C000FB687B617B69002B04D1202306E000BFDC
:1049D00000007F407B69B3FA83F3DBB2013303F05D
:1049E0001F0213465B0013441E3B1B0543F000737C
:1049F0000B433A6892681946FEF7EFFF3B681A6866
:104A00003D4B1340002B6CD03C48FEF731FFC7F8FC
:104A1000C0003B681B683A4A934227D1D7F8C030A0
:104A200003F40003002B21D17B681B68354A9342B5
:104A300057D1D7F8C03043F4000319462F48FEF78A
:104A400004FF314B1B689B09304AA2FB03239B09DF
:104A50005A1C13465B0013449B00BB6002E0BB681A
:104A6000013BBB60BB68002BF9D13AE03B681B6897
:104A7000274A934213D1D7F8C03003F08073002B3C
:104A80000DD17B681B681F4A93422AD1D7F8C030EA
:104A900043F0807319461948FEF7D7FE21E03B68C2
:104AA0001B681C4A93421CD1D7F8C03003F4800322
:104AB000002B16D17B681B68124A934211D1D7F89C
:104AC000C03043F4800319460C48FEF7BEFE08E0F0
:104AD0007B685B6D43F020027B685A65012387F891
:104AE000D7307B68002283F8502097F8D7301846DB
:104AF000D837BD4680BD00BF0000088000030450C9
:104B0000000052C70000045000000020632D3E0545
:104B1000000084CB0100008080B584B000AF7860D5
:104B20000023BB607B681B681846FFF71BF8034631
:104B3000002B69D17B681B689A68364B1340002BA9
:104B40000DD07B685B6D43F010027B685A657B6813
:104B50009B6D43F001027B689A65012355E07B68F9
:104B60001B681846FEF7D6FF2B48FEF781FE03466A
:104B700003F40003002B13D0284B1B689B09284A21
:104B8000A2FB03239B095A1C13465B0013449B00A2
:104B9000BB6002E0BB68013BBB60BB68002BF9D186
:104BA000FEF710FEF86028E07B681B681846FEF7E9
:104BB000D9FF0346002B04D17B681B681846FEF71B
:104BC000A9FFFEF7FFFD0246FB68D31A022B14D99A
:104BD0007B681B681B6803F00103012B0DD07B6809
:104BE0005B6D43F010027B685A657B689B6D43F0F8
:104BF00001027B689A65012307E07B681B681B68DC
:104C000003F00103012BCFD1002318461037BD4616
:104C100080BD00BF3F000080000304500000002062
:104C2000632D3E0580B584B000AF78607B681B685B
:104C30001846FEF7AAFFF8607B681B681846FEF767
:104C400091FF0346002B47D0FB68002B44D17B68C3
:104C50001B689B6803F00D03012B0CD17B681B685C
:104C60001846FEF76BFF7B681B6803221A60FEF78D
:104C7000A9FDB86029E07B685B6D43F010027B689A
:104C80005A657B689B6D43F001027B689A6501233E
:104C900023E0FEF797FD0246BB68D31A022B14D916
:104CA0007B681B689B6803F00103002B0DD07B68B9
:104CB0005B6D43F010027B685A657B689B6D43F027
:104CC00001027B689A65012307E07B681B689B688B
:104CD00003F00103002BDCD1002318461037BD463A
:104CE00080BD80B584B000AF78607B689B6AFB6054
:104CF000FB685B6D03F05003002B4BD1FB685B6DD1
:104D000043F40072FB685A65FB681B681B6803F07C
:104D10000803002B21D0FB681B681846FEF70BFE2A
:104D20000346002B32D0FB681B68DB6803F400539A
:104D3000002B2BD1FB685B6D23F48072FB685A65F6
:104D4000FB685B6D03F48053002B1FD1FB685B6D28
:104D500043F00102FB685A6518E0FB681B68DB68DA
:104D600003F00203002B11D1FB685B6D23F480720A
:104D7000FB685A65FB685B6D03F48053002B05D11B
:104D8000FB685B6D43F00102FB685A65F868FDF74C
:104D9000ADFE0EE0FB685B6D03F01003002B03D04B
:104DA000F868FFF7CDFA04E0FB68DB6C5B6B7868B2
:104DB000984700BF1037BD4680BD80B584B000AFB6
:104DC00078607B689B6AFB60F868FFF7A5FA00BF14
:104DD0001037BD4680BD80B584B000AF78607B6879
:104DE0009B6AFB60FB685B6D43F04002FB685A65A1
:104DF000FB689B6D43F00402FB689A65F868FFF757
:104E00009FFA00BF1037BD4680BD80B483B000AFAD
:104E1000786039607B689B6823F0404323F03F0350
:104E20003A6802F08042134343F000427B689A6084
:104E300000BF0C37BD465DF8047B704780B483B07B
:104E400000AF78607B689B6803F00043B3F1004FCC
:104E500001D1012300E0002318460C37BD465DF860
:104E6000047B704780B584B000AF78603960002360
:104E7000BB607B6893F85030012B01D102234DE0D9
:104E80007B68012283F850207868FFF7CBFE034649
:104E9000FB73FB7B002B36D17B685B6D23F488535F
:104EA00023F0020343F002027B685A657B681B68AB
:104EB00039681846FFF7A9FF14E0BB680133BB60EF
:104EC000BB68B3F5912F0DD37B685B6D23F01203A4
:104ED00043F010027B685A657B68002283F85020FB
:104EE00001231BE07B681B681846FFF7A7FF0346FA
:104EF000002BE2D17B685B6D23F0030343F00102DA
:104F00007B685A6505E07B685B6D43F010027B6847
:104F10005A657B68002283F85020FB7B18461037C7
:104F2000BD4680BD80B483B000AF786000BF0C3751
:104F3000BD465DF8047B704780B483B000AF7860F5
:104F400000BF0C37BD465DF8047B704780B483B06A
:104F500000AF786000BF0C37BD465DF8047B70473A
:104F600080B483B000AF786000BF0C37BD465DF8F9
:104F7000047B704780B483B000AF786000BF0C370B
:104F8000BD465DF8047B704780B485B000AF7860A3
:104F90007B6803F00703FB600C4BDB68BB60BA68FF
:104FA0004FF6FF031340BB60FB681A02BB68134354
:104FB00043F0BF6343F40033BB60044ABB68D36073
:104FC00000BF1437BD465DF8047B704700ED00E07C
:104FD00080B400AF044BDB681B0A03F007031846DC
:104FE000BD465DF8047B704700ED00E080B483B0FF
:104FF00000AF0346FB7197F90730002B0BDBFB7901
:1050000003F01F02074997F907305B09012000FAF6
:1050100002F241F8232000BF0C37BD465DF8047B47
:10502000704700BF00E100E080B483B000AF0346EA
:105030003960FB7197F90730002B0ADB3B68DAB265
:105040000C4997F907301201D2B20B4483F80023C0
:105050000AE03B68DAB20849FB7903F00F03043B2E
:105060001201D2B20B441A7600BF0C37BD465DF870
:10507000047B704700E100E000ED00E080B489B0FF
:1050800000AFF860B9607A60FB6803F00703FB616A
:10509000FB69C3F10703042B28BF0423BB61FB6931
:1050A0000433062B02D9FB69033B00E000237B613C
:1050B0004FF0FF32BB6902FA03F3DA43BB681A40D0
:1050C0007B699A404FF0FF317B6901FA03F3D943C2
:1050D0007B680B40134318462437BD465DF8047BBC
:1050E0007047000080B582B000AF78607B68013BFC
:1050F000B3F1807F01D301230FE00A4A7B68013BB3
:1051000053600F214FF0FF30FFF78EFF054B002259
:105110009A60044B07221A60002318460837BD46E0
:1051200080BD00BF10E000E080B582B000AF7860C5
:105130007868FFF729FF00BF0837BD4680BD80B5FE
:1051400086B000AF0346B9607A60FB7300237B61D1
:10515000FFF73EFF78617A68B9687869FFF78EFFDC
:10516000024697F90F3011461846FFF75DFF00BF62
:105170001837BD4680BD80B582B000AF0346FB71D5
:1051800097F907301846FFF731FF00BF0837BD46D3
:1051900080BD80B582B000AF78607868FFF7A2FF6D
:1051A000034618460837BD4680BD000080B582B072
:1051B00000AF78607B68002B01D1012354E07B684D
:1051C0005B7FDBB2002B05D17B6800221A77786801
:1051D000FDF7A4FD7B6802225A777B681B79002BC0
:1051E0000CD17B681B68224A5A617B681B689A68ED
:1051F0007B681B6822F018029A600CE07B68996853
:105200007B68DB681A46786800F034F80346002BA8
:1052100001D0012328E07B685B79002B05D17B68F6
:105220001B684FF0FF321A6104E07B681B687A68E4
:1052300012691A617B681B689B6823F060017B68B8
:105240005A697B681B680A439A607B681B689B6885
:1052500023F080017B689A697B681B680A439A6027
:105260007B6801225A77002318460837BD4680BD67
:10527000B71DC10480B487B000AFF860B9607A6030
:105280000023FB751F233B61BB6803F00103002B68
:1052900002D10123FB7563E000BF3B695A1E3A61EE
:1052A000002B09D03B6903F01F03BA6822FA03F30D
:1052B00003F00103002BF0D07B68182B46D801A225
:1052C00052F823F0535300084D5300084D53000883
:1052D0004D5300084D5300084D5300084D5300082E
:1052E0004D530008415300084D5300084D5300082A
:1052F0004D5300084D5300084D5300084D5300080E
:105300004D530008355300084D5300084D53000815
:105310004D5300084D5300084D5300084D530008ED
:105320004D530008295300083B69062B13D901236C
:10533000FB7510E03B69072B0FD90123FB750CE0CF
:105340003B690F2B0BD90123FB7508E00123FB758B
:1053500006E000BF04E000BF02E000BF00E000BFC5
:10536000FB7D002B0DD1FB681B68BA685A61FB6896
:105370001B689B6823F01801FB681B687A680A4366
:105380009A60FB7D18461C37BD465DF8047B70476C
:1053900080B485B000AF78607B68002B01D1012319
:1053A00098E07B681B681A464D4B9A420FD87B6881
:1053B0001B681A464B4B13444B4AA2FB03231B09A1
:1053C0009A007B685A647B68484A1A640EE07B68DE
:1053D0001B681A46464B1344434AA2FB03231B098E
:1053E0009A007B685A647B68424A1A647B6802228E
:1053F00083F825207B681B681B68FB60FB6823F42F
:10540000FF4323F07003FB607B689A687B68DB686E
:105410001A437B681B691A437B685B691A437B6884
:105420009B691A437B68DB691A437B681B6A1343D9
:10543000FA681343FB607B681B68FA681A607B6834
:105440009B68B3F5804F39D07B681B6C274A934229
:105450001AD1294B1A687B685B6C03F01C030F217F
:1054600001FA03F3DB43244913400B60224B1A6813
:105470007B6859687B685B6C03F01C0301FA03F3DB
:105480001D4913430B6019E01C4B1A687B685B6C69
:1054900003F01C030F2101FA03F3DB431749134008
:1054A0000B60164B1A687B6859687B685B6C03F06D
:1054B0001C0301FA03F3114913430B607B680022BC
:1054C000DA637B68012283F825207B68002283F859
:1054D0002420002318461437BD465DF8047B70472E
:1054E00007040240F8FFFDBFCDCCCCCC0000024049
:1054F000F8FBFDBF00040240A8000240A8040240DF
:1055000080B586B000AFF860B9607A603B60002378
:10551000FB75FB6893F82430012B01D102234BE08B
:10552000FB68012283F82420FB6893F82530DBB266
:10553000012B3AD1FB68022283F82520FB68002268
:10554000DA63FB681B681A68FB681B6822F00102BB
:105550001A603B687A68B968F86800F05FF9FB6820
:105560001B6B002B08D0FB681B681A68FB681B6864
:1055700042F00E021A600FE0FB681B681A68FB68B5
:105580001B6822F004021A60FB681B681A68FB683B
:105590001B6842F00A021A60FB681B681A68FB6805
:1055A0001B6842F001021A6005E0FB68002283F8E4
:1055B00024200223FB75FB7D18461837BD4680BDAD
:1055C00080B485B000AF78600023FB737B6893F8EC
:1055D0002530DBB2022B08D07B680422DA637B68BB
:1055E000002283F82420012322E07B681B681A68CC
:1055F0007B681B6822F00E021A607B681B681A68C1
:105600007B681B6822F001021A607B685B6C03F008
:105610001C027B681B6C012101FA02F25A607B6854
:10562000012283F825207B68002283F82420FB7B5D
:1056300018461437BD465DF8047B704780B584B0CA
:1056400000AF78600023FB737B6893F82530DBB2F2
:10565000022B05D07B680422DA630123FB7329E067
:105660007B681B681A687B681B6822F00E021A6050
:105670007B681B681A687B681B6822F001021A604D
:105680007B685B6C03F01C027B681B6C012101FAD8
:1056900002F25A607B68012283F825207B68002291
:1056A00083F824207B689B6B002B03D07B689B6B6B
:1056B00078689847FB7B18461037BD4680BD80B59B
:1056C00084B000AF78607B681B6C1B68FB607B68F4
:1056D0001B681B68BB607B685B6C03F01C030422C7
:1056E0009A40FB681340002B26D0BB6803F00403EC
:1056F000002B21D07B681B681B6803F02003002B64
:1057000007D17B681B681A687B681B6822F004025B
:105710001A607B685B6C03F01C027B681B6C0421C5
:1057200001FA02F25A607B681B6B002B71D07B6818
:105730001B6B786898476CE07B685B6C03F01C031C
:1057400002229A40FB681340002B2ED0BB6803F066
:105750000203002B29D07B681B681B6803F0200321
:10576000002B0BD17B681B681A687B681B6822F0D2
:105770000A021A607B68012283F825207B685B6C33
:1057800003F01C027B681B6C022101FA02F25A60D2
:105790007B68002283F824207B68DB6A002B38D0EA
:1057A0007B68DB6A7868984733E07B685B6C03F062
:1057B0001C0308229A40FB681340002B2AD0BB68C8
:1057C00003F00803002B25D07B681B681A687B68F0
:1057D0001B6822F00E021A607B685B6C03F01C02EF
:1057E0007B681B6C012101FA02F25A607B6801227E
:1057F000DA637B68012283F825207B68002283F826
:1058000024207B685B6B002B04D07B685B6B786823
:10581000984700BF00BF1037BD4680BD80B485B03B
:1058200000AFF860B9607A603B60FB685B6C03F0C6
:105830001C02FB681B6C012101FA02F25A60FB6832
:105840001B683A685A60FB689B68102B08D1FB689C
:105850001B687A689A60FB681B68BA68DA6007E0C0
:10586000FB681B68BA689A60FB681B687A68DA6034
:1058700000BF1437BD465DF8047B704780B487B025
:1058800000AF7860396000237B6154E13B681A689F
:1058900001217B6901FA03F31340FB60FB68002BD5
:1058A00000F046813B685B6803F00303012B05D0E1
:1058B0003B685B6803F00303022B30D17B689B6875
:1058C0003B617B695B00032202FA03F3DB433A6925
:1058D00013403B613B68DA687B695B0002FA03F3C3
:1058E0003A6913433B617B683A699A607B685B68FD
:1058F0003B6101227B6902FA03F3DB433A691340FF
:105900003B613B685B681B0903F001027B6902FA9B
:1059100003F33A6913433B617B683A695A603B6819
:105920005B6803F00303032B17D07B68DB683B61E4
:105930007B695B00032202FA03F3DB433A691340FD
:105940003B613B689A687B695B0002FA03F33A6942
:1059500013433B617B683A69DA603B685B6803F03C
:105960000303022B23D17B69DA087B68083253F8E2
:1059700022303B617B6903F007039B000F2202FA90
:1059800003F3DB433A6913403B613B681A697B6967
:1059900003F007039B0002FA03F33A6913433B61E8
:1059A0007B69DA087B680832396943F822107B6822
:1059B0001B683B617B695B00032202FA03F3DB4354
:1059C0003A6913403B613B685B6803F003027B6903
:1059D0005B0002FA03F33A6913433B617B683A695F
:1059E0001A603B685B6803F44033002B00F0A08032
:1059F000584B1B6E574A43F001031366554B1B6E01
:105A000003F00103BB60BB68534A7B699B08023308
:105A100052F823303B617B6903F003039B000F22A4
:105A200002FA03F3DB433A6913403B617B68B3F14D
:105A3000904F19D07B68494A934213D07B68484AFB
:105A400093420DD07B68474A934207D07B68464A11
:105A5000934201D1042308E0072306E0032304E076
:105A6000022302E0012300E000237A6902F003022E
:105A7000920093403A6913433B6137497B699B0825
:105A800002333A6941F82320384B9B683B61FB683D
:105A9000DB433A6913403B613B685B6803F4801366
:105AA000002B03D03A69FB6813433B612F4A3B69E3
:105AB00093602E4BDB683B61FB68DB433A69134024
:105AC0003B613B685B6803F40013002B03D03A6929
:105AD000FB6813433B61254A3B69D360234B5B68FA
