:020000040800F2
:1000000000000120D1320008A5300008AD30000802
:10001000B5300008BD300008C53000080000000001
:10002000000000000000000000000000CD300008CB
:10003000DB30000800000000E9300008F73000085D
:100040002133000821330008213300082133000840
:100050002133000821330008213300082133000830
:100060002133000821330008213300082133000820
:100070002133000821330008213300082133000810
:10008000053100082133000821330008213300081E
:1000900021330008213300082133000819310008FA
:1000A00021330008213300082133000821330008E0
:1000B0002133000800000000000000002133000888
:1000C00021330008213300082133000821330008C0
:1000D0002133000831310008453100082133000880
:1000E0002133000821330008000000000000000058
:1000F0000000000000000000000000000000000000
:100100000000000021330008000000002133000837
:100110000000000000000000213300082133000827
:10012000213300082133000821330008213300085F
:100130002133000800000000000000000000000063
:10014000213300082133000821330008213300083F
:10015000213300082133000821330008213300082F
:10016000213300082133000821330008000000007B
:10017000213300082133000821330008000000006B
:0C0180002133000821330008213300085F
:1001900010B5054C237833B9044B13B10448AFF3C1
:1001A00000800123237010BDF40100200000000036
:1001B0008CB9000808B5034B1BB103490348AFF3E2
:1001C000008008BD00000000F80100208CB9000884
:1001D00001F0FF01102A2BDB10F0070F08D010F8F8
:1001E000013B013A8B422DD010F0070F42B3F6D1FC
:1001F000F0B441EA012141EA014122F007047FF015
:1002000000070023F0E80256083C85EA010586EA6B
:10021000010685FA47F5A3FA87F586FA47F6A5FAA7
:1002200087F68EB9EED1F0BC01F0FF0102F00702B3
:1002300032B110F8013B013A83EA010313B1F8D15E
:100240000020704701387047002D06BF354603383F
:10025000073815F0010F07D1013015F4807F02BF78
:10026000013015F4C03F0130F0BC0138704700BFC9
:10027000034613F8012B002AFBD1181A01387047E6
:1002800081F0004102E000BF83F0004330B54FEA47
:1002900041044FEA430594EA050F08BF90EA020FB4
:1002A0001FBF54EA000C55EA020C7FEA645C7FEA47
:1002B000655C00F0E2804FEA5454D4EB5555B8BF6A
:1002C0006D420CDD2C4480EA020281EA030382EADB
:1002D000000083EA010180EA020281EA0303362D6D
:1002E00088BF30BD11F0004F4FEA01314FF4801C40
:1002F0004CEA113102D0404261EB410113F0004F52
:100300004FEA03334CEA133302D0524263EB430308
:1003100094EA050F00F0A780A4F10104D5F1200EA6
:100320000DDB02FA0EFC22FA05F2801841F1000101
:1003300003FA0EF2801843FA05F359410EE0A5F1D5
:1003400020050EF1200E012A03FA0EFC28BF4CF006
:10035000020C43FA05F3C01851EBE37101F00045BC
:1003600007D54FF0000EDCF1000C7EEB00006EEBC9
:100370000101B1F5801F1BD3B1F5001F0CD3490853
:100380005FEA30004FEA3C0C04F101044FEA4452AA
:1003900012F5800F80F09A80BCF1004F08BF5FEA31
:1003A000500C50F1000041EB045141EA050130BD11
:1003B0005FEA4C0C404141EB0101013C28BFB1F523
:1003C000801FE9D291F0000F04BF01460020B1FA6E
:1003D00081F308BF2033A3F10B03B3F120020CDA41
:1003E0000C3208DD02F1140CC2F10C0201FA0CF01F
:1003F00021FA02F10CE002F11402D8BFC2F1200C84
:1004000001FA02F120FA0CFCDCBF41EA0C01904039
:10041000E41AA2BF01EB0451294330BD6FEA040482
:100420001F3C1CDA0C340EDC04F11404C4F120026D
:1004300020FA04F001FA02F340EA030021FA04F37F
:1004400045EA030130BDC4F10C04C4F1200220FAD6
:1004500002F001FA04F340EA0300294630BD21FA14
:1004600004F0294630BD94F0000F83F4801306BFDA
:1004700081F480110134013D4EE77FEA645C18BFCE
:100480007FEA655C29D094EA050F08BF90EA020F65
:1004900005D054EA000C04BF1946104630BD91EA5D
:1004A000030F1EBF0021002030BD5FEA545C05D160
:1004B0004000494128BF41F0004130BD14F580049F
:1004C0003CBF01F5801130BD01F0004545F0FE4113
:1004D00041F470014FF0000030BD7FEA645C1ABF48
:1004E000194610467FEA655C1CBF0B46024650EA7F
:1004F000013406BF52EA033591EA030F41F40021AB
:1005000030BD00BF90F0000F04BF0021704730B530
:100510004FF4806404F132044FF000054FF0000105
:1005200050E700BF90F0000F04BF0021704730B5C6
:100530004FF4806404F1320410F0004548BF40429B
:100540004FF000013EE700BF42004FEAE2014FEAF0
:1005500031014FEA02701FBF12F07F4393F07F4FCB
:1005600081F06051704732F07F4208BF704793F0CE
:100570007F4F04BF41F40021704730B54FF46074E1
:1005800001F0004521F000411CE700BF50EA0102E4
:1005900008BF704730B54FF000050AE050EA01028D
:1005A00008BF704730B511F0004502D5404261EBFD
:1005B00041014FF4806404F132045FEA915C3FF43E
:1005C000D8AE4FF003025FEADC0C18BF03325FEADB
:1005D000DC0C18BF033202EBDC02C2F1200300FA8C
:1005E00003FC20FA02F001FA03FE40EA0E0021FAB1
:1005F00002F11444BDE600BF70B54FF0FF0C4CF49F
:10060000E06C1CEA11541DBF1CEA135594EA0C0F50
:1006100095EA0C0F00F0DEF82C4481EA030621EA8B
:100620004C5123EA4C5350EA013518BF52EA0335C6
:1006300041F4801143F4801338D0A0FB02CE4FF078
:100640000005E1FB02E506F00042E0FB03E54FF0A8
:100650000006E1FB03569CF0000F18BF4EF0010EA0
:10066000A4F1FF04B6F5007F64F5407404D25FEA9C
:100670004E0E6D4146EB060642EAC62141EA55514F
:100680004FEAC52040EA5E504FEACE2EB4F1FD0C91
:1006900088BFBCF5E06F1ED8BEF1004F08BF5FEA0F
:1006A000500E50F1000041EB045170BD06F00046C1
:1006B00046EA010140EA020081EA0301B4EB5C046E
:1006C000C2BFD4EB0C0541EA045170BD41F4801166
:1006D0004FF0000E013C00F3AB8014F1360FDEBF8B
:1006E000002001F0004170BDC4F10004203C35DA67
:1006F0000C341BDC04F11404C4F1200500FA05F3EA
:1007000020FA04F001FA05F240EA020001F000428A
:1007100021F0004110EBD37021FA04F642EB060100
:100720005EEA430E08BF20EAD37070BDC4F10C042A
:10073000C4F1200500FA04F320FA05F001FA04F2EE
:1007400040EA020001F0004110EBD37041F10001DA
:100750005EEA430E08BF20EAD37070BDC4F12005E5
:1007600000FA05F24EEA020E20FA04F301FA05F24D
:1007700043EA020321FA04F001F0004121FA04F2F5
:1007800020EA020000EBD3705EEA430E08BF20EAC5
:10079000D37070BD94F0000F0FD101F000464000FF
:1007A00041EB010111F4801F08BF013CF7D041EA81
:1007B000060195F0000F18BF704703F00046520085
:1007C00043EB030313F4801F08BF013DF7D043EA56
:1007D0000603704794EA0C0F0CEA135518BF95EA0C
:1007E0000C0F0CD050EA410618BF52EA4306D1D193
:1007F00081EA030101F000414FF0000070BD50EAB2
:10080000410606BF1046194652EA430619D094EA3B
:100810000C0F02D150EA013613D195EA0C0F05D125
:1008200052EA03361CBF104619460AD181EA030179
:1008300001F0004141F0FE4141F470014FF0000031
:1008400070BD41F0FE4141F4780170BD70B54FF0CC
:10085000FF0C4CF4E06C1CEA11541DBF1CEA13554C
:1008600094EA0C0F95EA0C0F00F0A7F8A4EB05042E
:1008700081EA030E52EA03354FEA013100F0888025
:100880004FEA03334FF0805545EA131343EA1263EE
:100890004FEA022245EA111545EA10654FEA0026A3
:1008A0000EF000419D4208BF964244F1FD0404F55C
:1008B000407402D25B084FEA3202B61A65EB0305B8
:1008C0005B084FEA32024FF480104FF4002CB6EB75
:1008D000020E75EB030E22BFB61A754640EA0C00F5
:1008E0005B084FEA3202B6EB020E75EB030E22BF35
:1008F000B61A754640EA5C005B084FEA3202B6EB76
:10090000020E75EB030E22BFB61A754640EA9C0034
:100910005B084FEA3202B6EB020E75EB030E22BF04
:10092000B61A754640EADC0055EA060E18D04FEAC2
:10093000051545EA16754FEA06164FEAC30343EA62
:1009400052734FEAC2025FEA1C1CC0D111F4801F2F
:100950000BD141EA00014FF000004FF0004CB6E728
:1009600011F4801F04BF01430020B4F1FD0C88BFC7
:10097000BCF5E06F3FF6AFAEB5EB030C04BFB6EBD2
:10098000020C5FEA500C50F1000041EB045170BDC5
:100990000EF0004E4EEA113114EB5C04C2BFD4EBF2
:1009A0000C0541EA045170BD41F480114FF0000E76
:1009B000013C90E645EA060E8DE60CEA135594EAF2
:1009C0000C0F08BF95EA0C0F3FF43BAF94EA0C0FF5
:1009D0000AD150EA01347FF434AF95EA0C0F7FF46A
:1009E00025AF104619462CE795EA0C0F06D152EABE
:1009F00003353FF4FDAE1046194622E750EA4106A2
:100A000018BF52EA43067FF4C5AE50EA41047FF4B2
:100A10000DAF52EA43057FF4EBAE12E74FF0FF3C17
:100A200006E000BF4FF0010C02E000BF4FF0010CE8
:100A30004DF804CD4FEA410C7FEA6C5C4FEA430C61
:100A400018BF7FEA6C5C1BD001B050EA410C0CBFB0
:100A500052EA430C91EA030F02BF90EA020F002012
:100A6000704710F1000F91EA030F58BF994208BF79
:100A700090422CBFD8176FEAE37040F00100704736
:100A80004FEA410C7FEA6C5C02D150EA013C07D18D
:100A90004FEA430C7FEA6C5CD6D152EA033CD3D0D8
:100AA0005DF8040B704700BF8446104662468C46D2
:100AB0001946634600E000BF01B5FFF7B7FF002805
:100AC00048BF10F1000F01BD4DF808EDFFF7F4FF2E
:100AD0000CBF012000205DF808FB00BF4DF808EDB9
:100AE000FFF7EAFF34BF012000205DF808FB00BFDC
:100AF0004DF808EDFFF7E0FF94BF012000205DF8FE
:100B000008FB00BF4DF808EDFFF7CEFF94BF0120B2
:100B100000205DF808FB00BF4DF808EDFFF7C4FFAB
:100B200034BF012000205DF808FB00BF4FEA410CF4
:100B30007FEA6C5C02D150EA013C0AD14FEA430CD7
:100B40007FEA6C5C02D152EA033C02D14FF0000014
:100B500070474FF0010070474FEA410212F5001252
:100B600015D211D56FF47873B3EB625212D94FEAF4
:100B7000C12343F0004343EA505311F0004F23FADE
:100B800002F018BF404270474FF00000704750EA33
:100B9000013005D111F0004008BF6FF000407047F0
:100BA0004FF00000704700BF4FEA4102B2F1E0434E
:100BB00024BFB3F5001CDCF1FE5C0DD901F0004C44
:100BC0004FEAC0024CEA5070B2F1004F40EB830094
:100BD00008BF20F00100704711F0804F21D113F1C0
:100BE0003872BCBF01F00040704741F480114FEAF9
:100BF0005252C2F11802C2F1200C10FA0CF320FA82
:100C000002F018BF40F001004FEAC1234FEAD3239E
:100C100003FA0CFC40EA0C0023FA02F34FEA430308
:100C2000CCE77FEA625307D150EA01331EBF4FF091
:100C3000FE4040F44000704701F0004040F0FE40AC
:100C400040F40000704700BF53B94AB9002908BFFB
:100C500000281CBF4FF0FF314FF0FF3000F06AB9A1
:100C6000ADF1080C6DE904CE00F006F8DDF804E003
:100C7000DDE9022304B070472DE9F047089D0C46DA
:100C8000002B4ED194468C458646B2FA82F262D948
:100C90004AB1C2F12003914020FA03F30CFA02FC9E
:100CA000194300FA02FE4FEA1C471FFA8CF6B1FB0B
:100CB000F7F44FEA1E4307FB141143EA014304FB18
:100CC00006F199420AD91CEB030304F1FF3080F0CE
:100CD0001281994240F20F81023C6344591A1FFA73
:100CE0008EF3B1FBF7F007FB101143EA014300FB61
:100CF00006F69E420AD91CEB030300F1FF3180F097
:100D0000FC809E4240F2F980634402389B1B40EA1B
:100D1000044000211DB1D3400022C5E90032BDE8E6
:100D2000F0878B4205D90DB1C5E9000100210846C5
:100D3000F5E7B3FA83F1002946D1A34202D39042EA
:100D4000C0F0F080861A64EB03030120002DE6D08A
:100D5000C5E90063E3E7002A40F09080A1EB0C04B2
:100D60004FEA1C481FFA8CF70121B4FBF8F64FEA52
:100D70001E4308FB164443EA044307FB06F098426F
:100D800008D91CEB030306F1FF3402D2984200F2AB
:100D9000CD8026461C1A1FFA8EF3B4FBF8F008FB30
:100DA000104443EA044300FB07F79F4208D91CEBB9
:100DB000030300F1FF3402D29F4200F2B0802046CC
:100DC000DB1B40EA0640A5E7C1F120068B4022FA72
:100DD00006F71F4320FA06FC04FA01F343EA0C036A
:100DE000F44000FA01F8380C4FEA1349B4FBF0FE66
:100DF0001FFA87FC00FB1E4449EA04440EFB0CF971
:100E0000A14502FA01F20AD93C190EF1FF3A80F02D
:100E10008480A14540F28180AEF1020E3C44A4EBF7
:100E200009041FFA83F9B4FBF0F300FB134449EA09
:100E3000044403FB0CFCA44507D93C1903F1FF3023
:100E400067D2A44565D9023B3C4443EA0E40A0FB6F
:100E50000293A4EB0C049C42CE469C4651D34ED048
:100E600055B1B8EB0E0364EB0C0404FA06F6CB4064
:100E70001E43CC40C5E90064002150E7C2F12003C5
:100E800020FA03F10CFA02FC24FA03F394400C4319
:100E90004FEA1C4800FA02FE1FFA8CF7B3FBF8F089
:100EA00008FB1031230C43EA014300FB07F1994290
:100EB00008D91CEB030300F1FF362CD299422AD942
:100EC000023863445B1AA4B2B3FBF8F108FB113398
:100ED00044EA034401FB07F3A34208D91CEB0404D2
:100EE00001F1FF3613D2A34211D902396444E41A46
:100EF00041EA004139E70446F0E6084606E7C845FE
:100F0000AED2B9EB020E63EB070C0138A8E731460D
:100F1000EDE7034699E73046D4E7D6467FE76344DA
:100F200002384DE70646234608460FE7023E634473
:100F300030E700BF704700BF80B588B002AF78606F
:100F4000454B40F205421A60434A7B6853601E23BA
:100F5000FB74414B586876235B0099B207F113028A
:100F60004FF0FF330093012304F098F90A2002F0B8
:100F70004DFA0023FB752FE0FB7D5B00DBB2A02266
:100F80001344DBB2FB73344B586876235B0099B291
:100F900007F10F024FF0FF330093012304F07EF9B5
:100FA0002D4B586876235B0099B207F110024FF081
:100FB000FF330093022304F089FA3B7C1B021AB230
:100FC0007B7C1BB213431AB2FB7D91B2234A22F8F9
:100FD0001310FB7D0133FB75FB7D062BCCD91F4B1A
:100FE0001B885B099BB2DBB203F07F03BB751B4B15
:100FF0001B881B0B9BB27B75184800F059FE0346FB
:101000003B753A7D7B7D9A4201D001231FE000228F
:10101000BB7D934204D101231A460F4B9A6015E021
:101020001522BB7D934204D101231A460A4B9A60D4
:101030000CE01A22BB7D934204D100231A46064BD2
:101040009A6003E0FF231A46034B9A600023184678
:101050001837BD4680BD00BF1002002024020020CA
:1010600080B483B000AF87ED010A144B9B68012266
:1010700093420ED1124B1B6807EE903AB8EEE77A16
:10108000D7ED017A27EE277ADFED0E6AC7EE267AD2
:101090000DE00B4B1B6807EE903AB8EEE77AD7ED00
:1010A000017A27EE277AF2EE046AC7EE267AB0EECE
:1010B000670A0C37BD465DF8047B704710020020BC
:1010C000400200200000C842B0B500AFDFED187A42
:1010D000B0EE670AFFF7C4FFF0EE407A9FED157A95
:1010E00077EEC77A17EE900AFFF72EFA04460D4600
:1010F000114B1B681846FFF715FA0BA3D3E9002321
:10110000FFF77AFA02460B4620462946FFF79EFB78
:1011100002460B4610461946FFF746FD034607EE0A
:10112000903AB0EE670AB0BD05A3923A019D234004
:101130000000C84200DAC5471002002080B584B024
:1011400002AF3A4B5B68002B01D101236AE04A23CE
:10115000FB71364B586876235B0099B2FA1D4FF04D
:10116000FF330093012304F099F8142002F04EF9A4
:101170000023FB712D4B586876235B0099B2FA1D52
:101180004FF0FF330093012304F088F8274B586891
:1011900076235B0099B23A1D4FF0FF33009303238F
:1011A00004F094F93B791A047B791B021343BA7952
:1011B00013431F4A13605A23FB711C4B5868762354
:1011C0005B0099B2FA1D4FF0FF330093012304F046
:1011D00065F8142002F01AF90023FB71134B5868CC
:1011E00076235B0099B2FA1D4FF0FF330093012381
:1011F00004F054F80D4B586876235B0099B23A1D01
:101200004FF0FF330093032304F060F93B791A0495
:101210007B791B021343BA791343064A136000F02B
:101220000BF8002318460837BD4680BD1002002089
:1012300034020020380200202DE9B00FADF50D7DFD
:1012400000AF0023C7F810324FF000024FF0000348
:10125000C7E98A234FF000024FF00003C7E9882353
:101260000023C7F81C320023C7F818320023C7F840
:1012700014324FF000024FF00003C7E982234FF011
:1012800000024FF00003C7E98023954B1A68954B85
:101290005B891B02D31AC7F81032934B9A6801235B
:1012A0009A4240F029818F4B5B889BB2002298467E
:1012B00091464FF000044FF000054FEA094545EA1A
:1012C00018454FEA0844874BDB889BB20022C7F8D9
:1012D000A031C7F8A421D7F81032DA17C7F898312F
:1012E000C7F89C21D7E968894B46D7E966AB5246D7
:1012F00002FB03F25B46414601FB03F31344424603
:101300005146A2FB0112C7F8FC210A46C7F8F82192
:10131000D7F8FC211344C7F8FC31D7E97E23002B12
:1013200009DA12F17F01C7F8C01043F10003C7F8D2
:10133000C430D7E930234FF000004FF00001D0094E
:1013400040EA4360D91102460B46A118C7F8B8100D
:1013500045EB0303C7F8BC30D7E92E34C7E98A341C
:10136000604B9B889BB20022C7F89031C7F894214C
:101370004FF000044FF00005D7E9641213465D04F6
:101380000B4645EAD3350B465C04564B1B899BB292
:101390000022C7F88831C7F88C21D7F81032DA1745
:1013A000C7F88031C7F88421D7E962894B46D7E96D
:1013B00060AB524602FB03F25B46414601FB03F37E
:1013C000134442465146A2FB0112C7F8F4210A46D3
:1013D000C7F8F021D7F8F4211344C7F8F431D7E95E
:1013E0007C23002B09DA12F13F01C7F8B01043F15A
:1013F0000003C7F8B430D7E92C234FF000004FF0BA
:101400000001900940EA8360991102460B46A11839
:10141000C7F8A81045EB0303C7F8AC30D7E92A3466
:10142000C7E98834314B1B680022C7F87831C7F808
:101430007C21D7F82832D7E95E452A4602FB03F221
:10144000D7F82C32214601FB03F31A44D7F828328F
:101450002146A3FB0113C7F8EC310B46C7F8E8316E
:10146000D7F8EC31D318C7F8EC31D7E97A23002B41
:1014700009DA1F495118C7F8A01043F10003C7F853
:10148000A430D7E928234FF000004FF00001500DA1
:1014900040EAC3205915D7E98823841AC7F8704158
:1014A00061EB0303C7F87431D7E95C23002B0ADA38
:1014B00047F6FF715118C7F8981043F10003C7F8B9
:1014C0009C30D7E926234FF000004FF00001D00BED
:1014D00040EA4340D91302460B46064B1A6018E116
:1014E00038020020240200201002002034020020D4
:1014F000FFFF1F0040020020DE4B5B889BB20022F2
:10150000184611464FF000044FF00005CD0345EAA0
:101510005045C403D74BDB889BB20022C7F8683123
:10152000C7F86C21D7F81032DA179A469346D7E9F4
:101530005A010B460AFB03F2034603FB0BF3134469
:101540000246A2FB0A12C7F8E4210A46C7F8E021C6
:10155000D7F8E4211344C7F8E431D7E97823002B06
:1015600009DA12F1FF01C7F8901043F10003C7F840
:101570009430D7E924234FF000004FF00001100A07
:1015800040EA0360191202460B46A118C7F88810FA
:1015900045EB0303C7F88C30D7E92234C7E98A3416
:1015A000B44B9B889BB20022C7F86031C7F8642116
:1015B0004FF000044FF00005D7E9581213461D0400
:1015C0000B4645EA13450B461C04AA4B1B899BB2EC
:1015D0000022C7F85831C7F85C21D7F81032DA1763
:1015E000C7F85031C7F85421D7E956894B46D7E997
:1015F00054AB524602FB03F25B46414601FB03F348
:10160000134442465146A2FB0112C7F8DC210A46A8
:10161000C7F8D821D7F8DC211344C7F8DC31D7E963
:101620007623002B09DA12F17F01C7F8801043F10D
:101630000003C7F88430D7E920234FF000004FF0B3
:101640000001D00940EA4360D91102460B46A118B7
:10165000B96745EB0303FB67D7E91E34C7E9883454
:10166000854B1B680022C7F84831C7F84C21D7F8D2
:101670002832D7E952452A4602FB03F2D7F82C322A
:10168000214601FB03F31A44D7F828322146A3FB75
:101690000113C7F8D4310B46C7F8D031D7F8D4318D
:1016A000D318C7F8D431D7E97423002B07DA73496C
:1016B0005118396743F100037B67D7E91C234FF0CA
:1016C00000004FF00001500D40EAC3205915D7E942
:1016D0008823841AC7F8404161EB0303C7F84431FB
:1016E000D7E95023002B08DA41F6FF715118B9668B
:1016F00043F10003FB66D7E91A234FF000004FF0D7
:101700000001500B40EAC340591302460B465C4BA4
:101710001A60D7F81032DA17C7F83831C7F83C2109
:10172000544B9B899BB20022C7F83031C7F8342153
:10173000D7E94E452B46D7E94C89424602FB03F2D6
:101740004B46214601FB03F3134422464146A2FBCC
:101750000112C7F8CC210A46C7F8C821D7F8CC2116
:101760001344C7F8CC31D7E97223002B07DA454977
:101770005118396643F100037B66D7E918234FF00F
:1017800000004FF00001D00D40EA4320D915024679
:101790000B46134603F5FA631A463B4B1A603B4B64
:1017A0009A6801239A4240F0A580374B1B68B3F535
:1017B000FA6F80F27C81D7F81032DA17C7F8283137
:1017C000C7F82C21D7F81032DA17C7F82031C7F83C
:1017D0002421D7E94A452B46D7E94889424602FBEE
:1017E00003F24B46214601FB03F3134422464146D4
:1017F000A2FB0112C7F8C4210A46C7F8C021D7F8D6
:10180000C4211344C7F8C431D7E9704522462B469A
:101810009118B9655B41FB65D7E91623214651183C
:10182000396529464B417B654FF000024FF00003BC
:10183000D7E9148949468B00414643EA91734146F2
:101840008A0010461946034622469B1AC7F81831EB
:101850000B462A4663EB0203C7F81C31D7E946233F
:10186000002B15DA511EB96443F10703FB64D7E975
:1018700012230DE02402002034020020FFFF1F008D
:1018800040020020FFFF7F003C02002010020020E9
:101890004FF000004FF00001D810D91702460B4658
:1018A0001346C7F81432CB4B1B68A3F5FA62C94B39
:1018B0001B68A3F5FA6303FB02F213465B019B1A54
:1018C000002B00DA0733DB10C7F81832C14B1B6856
:1018D000A3F5FA62BF4B1B68A3F5FA6303FB02F2A0
:1018E00013469B019B1A002B00DA1F335B11C7F8CC
:1018F0001C32DCE0B74B1B68B3F5FA6F80F29F80B7
:10190000D7F81032DA17C7F81031C7F81421D7F812
:101910001032DA17C7F80831C7F80C21D7E9444567
:101920002B46D7E94289424602FB03F24B46214649
:1019300001FB03F3134422464146A2FB0112C7F800
:10194000BC210A46C7F8B821D7F8BC211344C7F810
:10195000BC31D7E96E4522462B46911839645B416C
:101960007B64D7E9102321465118C7F80011294696
:1019700043EB0101C7F80411D7E94023002B06DA35
:10198000511EB96343F10103FB63D7E90E234FF006
:1019900000004FF000015810D91702460B461346BD
:1019A000C7F814328B4B1B68A3F5FA62894B1B688E
:1019B000A3F5FA6303FB02F213465B001A44D30F4C
:1019C00013445B10C7F81832824B1B68A3F5FA6208
:1019D000804B1B68A3F5FA6303FB02F213469B00DE
:1019E0001344002B00DA0733DB10C7F81C32794BA5
:1019F0001B6813F5C86F5ADC764B1B6803F2DC5288
:101A0000744B1B6803F2DC5303FB02F21346DB004A
:101A10009A1AD7F818321344C7F818326D4B1B685E
:101A200003F2DC526B4B1B6803F2DC5302FB03F343
:101A30009A00D7F81C321344C7F81C3237E0654BC4
:101A40001B68B3F5FA6F32DBD7F8103203FB03F3F0
:101A50005B00DA17C7F8F830C7F8FC20D7E93E2357
:101A6000002B06DA511E396343F11F037B63D7E96C
:101A70000C234FF000004FF000015811D917024617
:101A80000B461346C7F81432524B1B68A3F5FA6293
:101A9000504B1B68A3F5FA6302FB03F3002B00DA3B
:101AA0000F331B11C7F818320023C7F81C32D7F8C0
:101AB0001832DA17C7F8F030C7F8F420D7E98823CE
:101AC000D7E93C452146511AB962294663EB010327
:101AD000FB62D7E90A34C7E98234D7F81C32DA1737
:101AE000C7F8E830C7F8EC20D7E98A23D7E93A45A8
:101AF0002146511A3962294663EB01037B62D7E91B
:101B00000834C7E98034334B1A68D7F81432D21A34
:101B1000314B1A61304B9A6801239A4262D12F4BA4
:101B20001B680022C7F8E030C7F8E420D7F800327D
:101B3000D7E938452A4602FB03F2D7F8043221469A
:101B400001FB03F31344D7F800222146A2FB011244
:101B5000C7F8B4210A46C7F8B021D7F8B421134416
:101B6000C7F8B431D7E96C23002B07DA1C495118A8
:101B7000B96143F10003FB61D7E906234FF0000090
:101B80004FF00001500D40EAC3205915D7E98223D8
:101B9000841AC7F8D84061EB0303C7F8DC30D7E9F3
:101BA0003623002B08DA47F6FF715118396143F1EB
:101BB00000037B61D7E904234FF000004FF00001E0
:101BC000D00B40EA4340D91302460B46024BDA6081
:101BD00061E000BF3C02002010020020340200201F
:101BE000FFFF1F002F4B1B680022C7F8D030C7F83B
:101BF000D420D7F80032D7E934452A4602FB03F255
:101C0000D7F80432214601FB03F31344D7F800222E
:101C10002146A2FB0112C7F8AC210A46C7F8A82149
:101C2000D7F8AC211344C7F8AC31D7E96A23002BAD
:101C300007DA1D495118B96043F10003FB60D7E989
:101C400002234FF000004FF00001500D40EAC32086
:101C50005915D7E98223841AC7F8C84061EB0303FA
:101C6000C7F8CC30D7E93223002B08DA41F6FF71F0
:101C70005118396043F100037B60D7E900234FF02E
:101C800000004FF00001500B40EAC34059130246D8
:101C90000B46064BDA6000BF07F50D77BD46BDE881
:101CA000B00F704734020020FFFF1F001002002019
:101CB00080B485B000AF78600023FB817B681B880F
:101CC000C3F30B039AB27B681A807B680E33002241
:101CD0001A8000237B733CE07B7B03F00103DBB2C3
:101CE000002B0FD07B7B5B08DBB25B007A68134470
:101CF0001B881BB2DBB21AB2B7F90E3053401BB2CD
:101D0000FB810BE07B7B5B08DBB25B007A681344F2
:101D10001B881B0A9AB2FB895340FB8108233B7343
:101D200011E0B7F90E30002B07DAFB895B001BB21C
:101D300083F440531BB2FB8102E0FB895B00FB8113
:101D40003B7B013B3B733B7B002BEAD17B7B01332D
:101D50007B737B7B0F2BBFD9FB891B0BFB81FB8923
:101D6000DBB218461437BD465DF8047B70470000AF
:101D700080B500AF294B03F580531B88002B4BD057
:101D8000264B03F580539A78244B03F580531B8828
:101D9000DBB2D31ADBB25AB2204B03F58053DA70B0
:101DA0001E4B03F5805393F90330002B09DA1B4BCC
:101DB00003F5805393F90330DBB2203BDBB25BB217
:101DC00004E0164B03F5805393F90330134A02F5F0
:101DD0008052D370114B03F580531B88013B9AB29C
:101DE0000E4B03F580531A800C4B03F5805393F987
:101DF0000330DB01094A13441946094807F0E8FD9E
:101E0000064B03F5805393F90330DB01034A134477
:101E10001946044807F0A3FF00BF80BD440200201C
:101E2000A8B900084812002080B584B000AF01F0C6
:101E300078FA00F083F800F0C3FB00F0A3FB00F099
:101E4000E5F800F049F900F087F900F0C5F900F075
:101E500039FB00F067FB00F0FFF900F03BFA00F0FF
:101E600093FA00F0E5FA012220214FF0904003F0B0
:101E700025F901220421274803F020F901224FF41B
:101E80008051244803F01AF9642001F0BFFA4FF49E
:101E900080722149214807F02DF82149214807F097
:101EA00097FD2148FFF748F8B860BB68002B03D1C5
:101EB0001E4807F0F5FD02E01D4807F0F1FD002384
:101EC000FB604FF000037B60012001F09FFAFA688D
:101ED000184B83FB02139911D317CB1A4FF47A7165
:101EE00001FB03F3D31A002B0DD14FF4806112488C
:101EF00003F0FCF8FFF722F90346002B03D1FFF7AC
:101F0000E3F887ED010AFFF733FFFB680133FB605D
:101F1000DAE700BF00040048C8160020F8150020CA
:101F200050BA0008C4B90008D4130020E8B900086A
:101F300010BA0008D34D62100008004880B596B072
:101F400000AF07F1140344220021184607F088FE71
:101F50003B4600221A605A609A60DA601A614FF4B8
:101F6000007003F005FF0346002B01D000F014FDC4
:101F700003F0E0FE244BD3F89030234A23F01803FB
:101F8000C2F890301D237B614FF48033BB61012385
:101F9000FB610123BB620123FB6200233B636023DF
:101FA0007B630223FB6303233B6405237B642023C1
:101FB000BB640723FB6402233B6502237B6507F1B7
:101FC0001403184603F0C2FF0346002B01D000F0B3
:101FD000E3FC0F233B6003237B600023BB600023F3
:101FE000FB6000233B613B460421184604F0C2FB22
:101FF0000346002B01D000F0CFFC05F029F800BF0C
:102000005837BD4680BD00BF0010024080B586B085
:1020100000AF3B4600221A605A609A60DA601A618B
:102020005A61294B294A1A60274B00225A60264BD5
:1020300000229A60244B0022DA60234B00221A61AE
:10204000214B04225A61204B00221A761E4B00229B
:102050005A761D4B0122DA611B4B002283F82020A7
:10206000194B00229A62184B0022DA62164B0022AA
:1020700083F83020144B00225A63134B002283F85C
:102080003820114801F072FB0346002B01D000F00C
:1020900083FC0F4B3B6006237B600023BB600D4B32
:1020A000FB6004233B6100237B613B4619460648E5
:1020B00001F09EFC0346002B01D000F06DFC00BF38
:1020C0001837BD4680BD00BFC81200200000045074
:1020D0000400600800007F4080B500AF1B4B1C4A25
:1020E0001A601A4B1B4A5A60184B00229A60174B11
:1020F0000122DA60154B00221A61144B00225A614A
:10210000124B00229A61114B0022DA610F4B002220
:102110001A620E4803F027F80346002B01D000F0A6
:102120003BFC0021094803F06DFD0346002B01D064
:1021300000F032FC0021054803F0AFFD0346002B00
:1021400001D000F029FC00BF80BD00BF2C1300208F
:1021500000540040E49CD11080B500AF1B4B1C4ADA
:102160001A601A4B1B4A5A60184B00229A60174B90
:102170000122DA60154B00221A61144B00225A61C9
:10218000124B00229A61114B0022DA610F4B0022A0
:102190001A620E4802F0E7FF0346002B01D000F060
:1021A000FBFB0021094803F02DFD0346002B01D065
:1021B00000F0F2FB0021054803F06FFD0346002B01
:1021C00001D000F0E9FB00BF80BD00BF80130020FC
:1021D00000580040E49CD11080B500AF1B4B1C4A56
:1021E0001A601A4B1B4A5A60184B00229A60174B10
:1021F0000122DA60154B00221A61144B00225A6149
:10220000124B00229A61114B0022DA610F4B4FF4FE
:1022100000321A620D4802F0A6FF0346002B01D0DF
:1022200000F0BAFB0021094803F0ECFC0346002B48
:1022300001D000F0B1FB0021044803F02EFD03465D
:10224000002B01D000F0A8FB00BF80BDD4130020FC
:10225000005C0040E49CD11080B500AF1B4B1C4AD1
:102260001A601A4B4FF482725A60184B00229A601F
:10227000164B4FF44072DA60144B00221A61134B74
:1022800000225A61114B4FF400729A610F4B0022E9
:10229000DA610E4B00221A620C4B00225A620B4B81
:1022A00000229A62094B0722DA62084B00221A6365
:1022B000064B08225A63054804F0CCFF0346002B66
:1022C00001D000F069FB00BF80BD00BF28140020D2
:1022D0000030014080B588B000AF07F11403002240
:1022E0001A605A609A603B1D00221A605A609A6018
:1022F000DA60234B234A1A60214B00225A60204B9C
:1023000000229A601E4B4FF6FF72DA601C4B0022CF
:102310001A611B4B00225A61194B00229A6118481E
:1023200005F092F80346002B01D000F035FB0023A6
:102330007B610023BB610023FB6107F11403194695
:102340000F4805F0F1FA0346002B01D000F024FB02
:1023500000237B600123BB600023FB6000233B6103
:102360003B1D00221946064805F0C5F80346002B20
:1023700001D000F011FB00BF2037BD4680BD00BF7B
:102380008C140020002C014080B588B000AF07F10C
:10239000140300221A605A609A603B1D00221A60E2
:1023A0005A609A60DA60214B4FF080421A601F4BEE
:1023B00000225A601D4B00229A601C4B4FF0FF32E6
:1023C000DA601A4B00221A61184B00229A611748F2
:1023D00005F03AF80346002B01D000F0DDFA0023A7
:1023E0007B610023FB6107F1140319460F4805F0D8
:1023F0009BFA0346002B01D000F0CEFA00237B604D
:102400000123BB600023FB6000233B613B1D0022D6
:102410001946064805F06FF80346002B01D000F07E
:10242000BBFA00BF2037BD4680BD00BFD8140020D6
:1024300080B584B000AF3B4600221A605A609A60B3
:10244000DA601E4B1E4A1A601C4B00225A601B4B5E
:1024500000229A60194B4FF6FF72DA60174B002288
:102460001A61164B00225A61144B00229A611348DC
:1024700004F093FF0346002B01D000F08DFA0F48C3
:1024800004F0E2FF0346002B01D000F085FA0023A0
:102490003B6001237B600023BB600023FB603B4665
:1024A00000221946054805F026F80346002B01D006
:1024B00000F072FA00BF1037BD4680BD2415002021
:1024C0000044014080B500AF144B154A1A60134B0D
:1024D0004FF4E1325A60114B00229A600F4B0022F8
:1024E000DA600E4B00221A610C4B0C225A610B4B26
:1024F00000229A61094B0022DA61084B00221A621D
:10250000064B00225A62054805F074FA0346002B78
:1025100001D000F041FA00BF80BD00BF701500205F
:102520000038014080B500AF144B154A1A60134BB8
:102530004FF4E1325A60114B00229A600F4B002297
:10254000DA600E4B00221A610C4B0C225A610B4BC5
:1025500000229A61094B0022DA61084B00221A62BC
:10256000064B00225A62054805F044FA0346002B48
:1025700001D000F011FA00BF80BD00BFF8150020A7
:102580000044004080B582B000AF0C4B9B6C0B4AFE
:1025900043F001039364094B9B6C03F001037B60E0
:1025A0007B6800220021102001F0DFFE102001F0E6
:1025B000F8FE00BF0837BD4680BD00BF00100240D6
:1025C00080B58AB000AF07F1140300221A605A6088
:1025D0009A60DA601A616A4BDB6C694A43F0040363
:1025E000D364674BDB6C03F004033B613B69644BD2
:1025F000DB6C634A43F08003D364614BDB6C03F014
:102600008003FB60FB685E4BDB6C5D4A43F00103BB
:10261000D3645B4BDB6C03F00103BB60BB68584BBE
:10262000DB6C574A43F00203D364554BDB6C03F079
:1026300002037B607B68524BDB6C514A43F008031A
:10264000D3644F4BDB6C03F008033B603B68002214
:1026500020214FF0904002F031FD002241F20401B0
:10266000484802F02BFD00224FF4E051464802F0AA
:1026700025FD08237B610323BB610023FB6107F178
:1026800014031946404802F09FFB20237B6101237D
:10269000BB610223FB6100233B6207F1140319466F
:1026A0004FF0904002F090FB20237B614FF48813A1
:1026B000BB610223FB6107F114031946324802F0A3
:1026C00083FB42F203037B614FF48813BB61022357
:1026D000FB6107F1140319462A4802F075FB41F229
:1026E00004037B610123BB610223FB6100233B6286
:1026F00007F114031946234802F066FB4FF40073F8
:102700007B610023BB610223FB6107F114031946BF
:102710001D4802F059FB4FF4E0537B610123BB617C
:102720000023FB6100233B6207F11403194616489E
:1027300002F04AFB04237B610023BB610023FB61A1
:1027400007F114031946114802F03EFB4FF40073E1
:102750007B614FF48813BB610023FB6107F1140315
:102760001946084802F030FB00220021172001F032
:10277000FCFD172001F015FE00BF2837BD4680BDC7
:10278000001002400004004800080048000C004807
:1027900080B586B000AFF860B9607A607B689AB2A5
:1027A0004FF0FF33B968084805F072F90346FB752E
:1027B000FB7D002B01D17B6801E04FF0FF33184611
:1027C0001837BD4680BD00BFF815002080B582B027
:1027D00000AF78600B467B804FF480612D4802F09B
:1027E00085FC4FF400612B4802F080FC4FF48051CF
:1027F000284802F07BFC00F059F87B88012B3FD978
:102800007B88254A0021D1542349244807F0E0F869
:10281000214B1B78242B33D1214B03F580531B888C
:102820001F2B2AD81E4B03F580531B8801339AB205
:102830001B4B03F580531A80194B03F580539B788B
:102840001F2B04D9164B03F5805300229A70144BAA
:1028500003F580539B78DB01114A13440E49184657
:1028600007F07DFA0E4B03F580539B780133DAB203
:102870000B4B03F580539A7002E00A4807F010F9F9
:102880004FF480720449084806F034FB00BF083753
:10289000BD4680BD00080048C816002034BA0008B4
:1028A000440200203CBA0008F815002080B58CB026
:1028B00000AF02F073F83B1D00221A605A609A6064
:1028C000DA6000233B6000237B600123BB600023B0
:1028D000FB6001233B613A463B1D1146184602F05E
:1028E0004DF90346002B04D002F08AF8B86100BF0E
:1028F000FDE74FF00063BB624FF0FF324FF0FF3354
:10290000C7E90823D7E90823B96A002001F0DAFFF4
:102910000346002B04D002F073F8F86100BFFDE716
:1029200002F05EF872B600BF184B00221A6003F086
:1029300075FA002387F82F3014E0154A97F82F30E6
:1029400020334FF0FF3142F82310114A97F82F300F
:1029500060334FF0FF3142F8231097F82F300133E6
:1029600087F82F3097F82F30022BE6D962B600BFD8
:10297000084B1B687B617B6983F3088800BF054BAC
:102980005B68984700BF3037BD4680BD10E000E06F
:1029900000E100E00000FF1F80B400AF72B600BF8E
:1029A00000BFFDE780B483B000AF0F4B1B6E0E4A33
:1029B00043F0010313660C4B1B6E03F001037B60B5
:1029C0007B68094B9B6D084A43F080539365064B27
:1029D0009B6D03F080533B603B6800BF0C37BD46E6
:1029E0005DF8047B704700BF0010024080B5A2B0C4
:1029F00000AF786007F1740300221A605A609A6091
:102A0000DA601A6107F1140360220021184607F00A
:102A100027F97B681B68314A93425BD14FF48043AE
:102A20007B614FF08053BB660323BB610523FB61D1
:102A300010233B6207237B620223BB620423FB62F9
:102A40004FF080733B6307F11403184604F0B6F8A7
:102A50000346002B01D0FFF79FFF214BDB6C204A80
:102A600043F40053D3641E4BDB6C03F400533B610F
:102A70003B691B4BDB6C1A4A43F00403D364184BCD
:102A8000DB6C03F00403FB60FB68154BDB6C144A42
:102A900043F00103D364124BDB6C03F00103BB6012
:102AA000BB6816237B670B23BB670023FB6707F11B
:102AB000740319460B4802F087F910237B670B2338
:102AC000BB670023FB6707F1740319464FF0904082
:102AD00002F07AF900BF8837BD4680BD000004507F
:102AE000001002400008004880B5A6B000AF786032
:102AF00007F1840300221A605A609A60DA601A6152
:102B000007F1240360220021184607F0A9F87B682A
:102B10001B68734A93423BD140237B6200237B6551
:102B200007F12403184604F049F80346002B01D0AE
:102B3000FFF732FF6B4BDB6C6A4A43F00203D3644E
:102B4000684BDB6C03F002033B623B6AC023C7F8AF
:102B500084301223C7F888300023C7F88C30032351
:102B6000C7F890300423C7F8943007F1840319465E
:102B70005D4802F029F95B4B9B6D5A4A43F4001300
:102B80009365584B9B6D03F40013FB61FB69A3E055
:102B90007B681B68554A93423CD180237B620023AB
:102BA000BB6507F12403184604F008F80346002B20
:102BB00001D0FFF7F1FE4B4BDB6C4A4A43F00203B6
:102BC000D364484BDB6C03F00203BB61BB694FF479
:102BD0008843C7F884301223C7F888300023C7F829
:102BE0008C300323C7F890300423C7F8943007F1E2
:102BF000840319463C4802F0E7F83A4B9B6D394A8A
:102C000043F480039365374B9B6D03F480037B6132
:102C10007B6961E07B681B68354A93425CD14FF465
:102C200080737B620023FB6507F12403184603F0E1
:102C3000C5FF0346002B01D0FFF7AEFE294BDB6C2E
:102C4000284A43F00403D364264BDB6C03F00403EF
:102C50003B613B69234BDB6C224A43F00203D364A4
:102C6000204BDB6C03F00203FB60FB680123C7F819
:102C700084301223C7F888300023C7F88C30032330
:102C8000C7F890300423C7F8943007F1840319463D
:102C9000184802F099F81023C7F884301223C7F8B7
:102CA00088300023C7F88C300323C7F89030042302
:102CB000C7F8943007F1840319460B4802F084F8F2
:102CC000084B9B6D074A43F400039365054B9B6DCE
:102CD00003F40003BB60BB6800BF9837BD4680BDEE
:102CE000005400400010024000040048005800401A
:102CF000005C00400008004880B58AB000AF7860F2
:102D000007F1140300221A605A609A60DA601A61AF
:102D10007B681B68174A934228D1174B1B6E164AD3
:102D200043F480531366144B1B6E03F480533B61D2
:102D30003B69114BDB6C104A43F00103D3640E4B2B
:102D4000DB6C03F00103FB60FB68C2237B610223A1
:102D5000BB610023FB6103233B6205237B6207F118
:102D6000140319464FF0904002F02EF800BF2837A8
:102D7000BD4680BD003001400010024080B58CB0DF
:102D800000AF786007F11C0300221A605A609A6055
:102D9000DA601A617B681B682F4A93422AD12F4B55
:102DA0001B6E2E4A43F4006313662C4B1B6E03F418
:102DB0000063BB61BB69294BDB6C284A43F001030C
:102DC000D364264BDB6C03F001037B617B694FF41A
:102DD0008073FB6102233B6200237B620023BB62A2
:102DE0000123FB6207F11C0319464FF0904001F0EC
:102DF000EBFF2DE07B681B68B3F1804F28D1174BA8
:102E00009B6D164A43F001039365144B9B6D03F0D1
:102E100001033B613B69114BDB6C104A43F001033A
:102E2000D3640E4BDB6C03F00103FB60FB680123F2
:102E3000FB6102233B6200237B620023BB62012310
:102E4000FB6207F11C0319464FF0904001F0BCFFF4
:102E500000BF3037BD4680BD002C0140001002404D
:102E600080B58AB000AF786007F1140300221A60C1
:102E70005A609A60DA601A617B681B68174A93424D
:102E800028D1174B1B6E164A43F400331366144BBC
:102E90001B6E03F400333B613B69114BDB6C104A42
:102EA00043F00203D3640E4BDB6C03F00203FB60C0
:102EB000FB684FF480737B610223BB610023FB61DD
:102EC00000233B620E237B6207F114031946054879
:102ED00001F07AFF00BF2837BD4680BD00440140A5
:102EE000001002400004004880B5A4B000AF786034
:102EF00007F17C0300221A605A609A60DA601A6156
:102F000007F11C0360220021184606F0A9FE7B6829
:102F10001B685F4A934244D10123FB610023FB639A
:102F200007F11C03184603F049FE0346002B01D0AD
:102F3000FFF732FD574B1B6E564A43F4804313662E
:102F4000544B1B6E03F48043BB61BB69514BDB6C7C
:102F5000504A43F00103D3644E4BDB6C03F0010392
:102F60007B617B694FF4C063FB670223C7F8803045
:102F70000023C7F884300323C7F888300723C7F835
:102F80008C3007F17C0319464FF0904001F01CFF94
:102F900000220021252001F0E8F9252001F001FAA6
:102FA00071E07B681B683C4A93426CD10223FB6151
:102FB00000233B6407F11C03184603F0FFFD0346A2
:102FC000002B01D0FFF7E8FC324B9B6D314A43F4F4
:102FD000003393652F4B9B6D03F400333B613B69DA
:102FE0002C4BDB6C2B4A43F00103D364294BDB6C85
:102FF00003F00103FB60FB680C23FB670223C7F8A7
:1030000080300023C7F884300323C7F888300723B3
:10301000C7F88C3007F17C0319464FF0904001F05F
:10302000D3FE1E4B1E4A1A601C4B02225A601B4BD9
:1030300000229A60194B0022DA60184B80221A6134
:10304000164B00225A61154B00229A61134B002245
:10305000DA61124B4FF480521A62104801F0BCF949
:103060000346002B01D0FFF797FC7B680B4A5A6799
:103070000A4A7B68936200220021262001F075F93C
:10308000262001F08EF900BF9037BD4680BD00BFFD
:10309000003801400010024000440040801600202B
:1030A0006C00024080B400AF00BFFDE780B400AF09
:1030B00000BFFDE780B400AF00BFFDE780B400AF04
:1030C00000BFFDE780B400AF00BFFDE780B400AFF4
:1030D00000BFBD465DF8047B704780B400AF00BF01
:1030E000BD465DF8047B704780B400AF00BFBD46AD
:1030F0005DF8047B704780B500AF00F067F900BF52
:1031000080BD000080B500AF024801F0FCFA00BFAE
:1031100080BD00BF8016002080B500AF202001F0E8
:10312000FFFF4FF4007001F0FBFF00BF80BD000007
:1031300080B500AF024804F035FD00BF80BD00BF80
:103140007015002080B500AF024804F02BFD00BFD1
:1031500080BD00BFF815002080B400AF01231846E1
:10316000BD465DF8047B704780B582B000AF7860E3
:10317000396006F0C7FD034616221A604FF0FF3390
:1031800018460837BD4680BD80B582B000AF786074
:103190004FF0FF317868FFF7E7FF00BFFDE780B52C
:1031A00086B000AFF860B9607A6000237B610AE006
:1031B000AFF300800146BB685A1CBA60CAB21A70ED
:1031C0007B6901337B617A697B689A42F0DB7B68BB
:1031D00018461837BD4680BD80B483B000AF786014
:1031E0004FF0FF3318460C37BD465DF8047B70473F
:1031F00080B483B000AF786039603B684FF4005210
:103200005A60002318460C37BD465DF8047B7047B2
:1032100080B483B000AF7860012318460C37BD46F8
:103220005DF8047B704780B485B000AFF860B9608A
:103230007A60002318461437BD465DF8047B70475A
:1032400080B586B000AF7860144A154BD31A7B6105
:103250007B693B61134B1B68002B02D1114B124A57
:103260001A60104B1A687B6813443A699A4207D275
:1032700006F048FD03460C221A604FF0FF3309E0C8
:10328000084B1B68FB60074B1A687B681344054AB0
:103290001360FB6818461837BD4680BD000001204A
:1032A00000040000C81700202019002080B400AFDF
:1032B000064BD3F88830054A43F47003C2F88830CF
:1032C00000BFBD465DF8047B704700BF00ED00E025
:1032D000DFF834D0FFF7EAFF0C480D490D4A002310
:1032E00002E0D458C4500433C4188C42F9D30A4ABB
:1032F0000A4C002301E013600432A242FBD306F023
:1033000007FDFEF791FDFEE7000001200000002010
:10331000F401002020BE0008F40100201C19002048
:10332000FEE780B582B000AF0023FB71032001F0FF
:1033300011F80F2000F00EF80346002B02D00123F5
:10334000FB7101E0FFF72EFBFB7918460837BD46FD
:1033500080BD000080B584B000AF78600023FB73AF
:10336000174B1B78002B23D0164B1A68144B1B7875
:1033700019464FF47A73B3FBF1F3B2FBF3F318463B
:1033800001F01DF80346002B0FD17B680F2B09D8E5
:10339000002279684FF0FF3000F0E7FF0A4A7B68AF
:1033A000136007E00123FB7304E00123FB7301E0DA
:1033B0000123FB73FB7B18461037BD4680BD00BF61
:1033C00008000020000000200400002080B400AFAE
:1033D000064B1B781A46064B1B681344044A1360BD
:1033E00000BFBD465DF8047B704700BF08000020A9
:1033F000CC17002080B400AF034B1B681846BD46B5
:103400005DF8047B704700BFCC17002080B584B006
:1034100000AF7860FFF7EEFFB8607B68FB60FB6889
:10342000B3F1FF3F05D00A4B1B781A46FB681344E3
:10343000FB6000BFFFF7DEFF0246BB68D31AFA68E5
:103440009A42F7D800BF00BF1037BD4680BD00BF0D
:103450000800002080B483B000AF786039607B68DA
:103460009B6823F47C123B681A437B689A6000BF18
:103470000C37BD465DF8047B704780B483B000AF65
:10348000786039607B689B6823F0E0723B681A4380
:103490007B689A6000BF0C37BD465DF8047B7047BF
:1034A00080B483B000AF78607B689B6803F0E07302
:1034B00018460C37BD465DF8047B704780B487B072
:1034C00000AFF860B9607A603B60FB6860331A4611
:1034D000BB689B0013447B617B691A68084B1340EF
:1034E0007A6802F0F8413A680A43134343F0004215
:1034F0007B691A6000BF1C37BD465DF8047B7047CE
:1035000000F0FF0380B485B000AF786039607B685D
:1035100060331A463B689B001344FB60FB681B68E2
:1035200003F0F84318461437BD465DF8047B704736
:1035300080B487B000AFF860B9607A60FB68603330
:103540001A46BB689B0013447B617B691B6823F0B0
:1035500000427B681A437B691A6000BF1C37BD4676
:103560005DF8047B704780B487B000AFF860B96045
:103570007A60FB6830331A46BB681B0A9B0003F075
:103580000C0313447B617B691A68BB6803F01F035B
:103590001F2101FA03F3DB431A407B689B0E03F003
:1035A0001F01BB6803F01F0301FA03F31A437B6991
:1035B0001A6000BF1C37BD465DF8047B704780B4BD
:1035C00087B000AFF860B9607A60FB6814331A46C0
:1035D000BB685B0E9B0003F0040313447B617B69B3
:1035E0001A68BB681B0D03F01F03072101FA03F3E0
:1035F000DB431A40BB681B0D03F01F03796801FA17
:1036000003F31A437B691A6000BF1C37BD465DF89F
:10361000047B704780B485B000AFF860B9607A6011
:10362000FB68D3F8B020BB68C3F31203DB431A4036
:103630007B6803F018030849D940BB680B40C3F30B
:1036400012031A43FB68C3F8B02000BF1437BD460D
:103650005DF8047B704700BFFFFF070080B483B0B4
:1036600000AF78607B689B6823F0204323F03F0322
:103670007A68936000BF0C37BD465DF8047B7047E5
:1036800080B483B000AF78607B689B6803F0005320
:10369000B3F1005F01D1012300E0002318460C378D
:1036A000BD465DF8047B704780B483B000AF78609E
:1036B0007B689B6823F0104323F03F0343F0805264
:1036C0007B689A6000BF0C37BD465DF8047B70478D
:1036D00080B483B000AF78607B689B6803F0805350
:1036E000B3F1805F01D1012300E0002318460C37BD
:1036F000BD465DF8047B704780B483B000AF78604E
:103700007B689B6803F00103012B01D1012300E0DA
:10371000002318460C37BD465DF8047B704780B423
:1037200083B000AF78607B689B6803F00403042BD0
:1037300001D1012300E0002318460C37BD465DF897
:10374000047B704780B483B000AF78607B689B686F
:1037500003F00803082B01D1012300E000231846E1
:103760000C37BD465DF8047B7047000080B588B01B
:1037700000AF78600023FB770023FB607B68002BA1
:1037800001D1012326E17B681B69002B7B685B6DFF
:10379000002B09D17868FFF729F97B6800229A6528
:1037A0007B68002283F850207B681B681846FFF76F
:1037B00067FF0346002B04D07B681B681846FFF7A1
:1037C0004DFF7B681B681846FFF782FF0346002BFE
:1037D00015D17B681B681846FFF766FF7F4B1B6897
:1037E0009B097F4AA2FB03239B0901335B00FB601B
:1037F00002E0FB68013BFB60FB68002BF9D17B68B2
:103800001B681846FFF764FF0346002B0DD17B6849
:103810005B6D43F010027B685A657B689B6D43F0DB
:1038200001027B689A650123FB777B681B68184659
:10383000FFF775FF78617B685B6D03F01003002B69
:1038400040F0BF807B69002B40F0BB807B685B6DE4
:1038500023F4817343F002027B685A657B681B681E
:103860001846FFF749FF0346002B0BD15D48FFF7D1
:1038700043FF0346002B05D17B685B6819465A4815
:10388000FFF7E8FD7B685B7E5A037B685B6B1A433E
:103890007B68DB681A437B689B681A437B6893F8F4
:1038A00020301B041343BB617B6893F82030012B4D
:1038B00006D17B685B6A013B5B04BA691343BB6159
:1038C0007B689B6A002B09D07B689B6A03F470724B
:1038D0007B68DB6A1343BA691343BB617B681B686F
:1038E000DA68424B13407A681268B9690B43D360B7
:1038F0007B681B681846FFF725FF38617B69002B42
:103900003DD13B69002B3AD17B681B7E9A037B68D3
:1039100093F830305B001343BB617B681B68DB6846
:1039200023F4804323F002037A681268B9690B43D9
:10393000D3607B6893F83830012B18D17B681B6803
:103940001B6923F4FF6323F004037A68D16B7A6860
:10395000126C11437A68526C11437A68926C0A4374
:103960001A437B681B6842F001021A6107E07B681A
:103970001B681A697B681B6822F001021A617B6868
:103980001B69012B0CD17B681B681B6B23F00F019B
:103990007B68DB695A1E7B681B680A431A6307E071
:1039A0007B681B681A6B7B681B6822F00F021A6326
:1039B0007B685B6D23F0030343F001027B685A656B
:1039C00007E07B685B6D43F010027B685A6501235A
:1039D000FB77FB7F18462037BD4680BD00000020E6
:1039E000632D3E05000004500003045007C0F0FFA3
:1039F00080B5B6B000AF78603960002387F8D73063
:103A00000023BB607B6893F85030012B01D1022367
:103A1000BBE37B68012283F850207B681B68184653
:103A2000FFF77DFE0346002B40F0A0833B685B68F8
:103A3000C7F8D0303B685B68052B24D83B685B68CF
:103A4000023B032B1BD801A252F823F05D3A000879
:103A5000653A00086D3A0008753A00080C23C7F86B
:103A6000D03010E01223C7F8D0300CE01823C7F88C
:103A7000D03008E04FF48073C7F8D03003E006235D
:103A8000C7F8D03000BF7B6818683B681B681A46CF
:103A9000D7F8D010FFF767FD7B681B681846FFF763
:103AA0003EFEC7F8CC007B681B681846FFF74AFE4D
:103AB000C7F8C800D7F8CC30002B40F0A481D7F865
:103AC000C830002B40F09F817B6818683B681968FC
:103AD0003B689B681A46FFF772FD3B685A697B6832
:103AE0001B68DB68DB0803F003035B0002FA03F3E7
:103AF000C7F8C4303B681B69042B0AD07B68186880
:103B00003B6819693B681A68D7F8C430FFF7D6FCE0
:103B100079E17B681B6800211846FFF7F3FC034638
:103B2000C3F31203002B0AD17B681B6800211846DF
:103B3000FFF7E8FC03469B0E03F01F021EE07B68C4
:103B40001B6800211846FFF7DDFC0346C7F8B830B4
:103B5000D7F8B83093FAA3F3C7F8B430D7F8B43035
:103B6000C7F8BC30D7F8BC30002B01D1202304E0CB
:103B7000D7F8BC30B3FA83F3DBB21A463B681B6854
:103B8000C3F31203002B05D13B681B689B0E03F0A7
:103B90001F0318E03B681B68C7F8AC30D7F8AC309F
:103BA00093FAA3F3C7F8A830D7F8A830C7F8B03015
:103BB000D7F8B030002B01D1202304E0D7F8B03083
:103BC000B3FA83F3DBB29A4206D17B681B6800220A
:103BD00000211846FFF7ACFC7B681B6801211846E2
:103BE000FFF790FC0346C3F31203002B0AD17B6856
:103BF0001B6801211846FFF785FC03469B0E03F066
:103C00001F021EE07B681B6801211846FFF77AFC43
:103C10000346C7F8A030D7F8A03093FAA3F3C7F84B
:103C20009C30D7F89C30C7F8A430D7F8A430002BCC
:103C300001D1202304E0D7F8A430B3FA83F3DBB238
:103C40001A463B681B68C3F31203002B05D13B687F
:103C50001B689B0E03F01F0318E03B681B68C7F846
:103C60009430D7F8943093FAA3F3C7F89030D7F88C
:103C70009030C7F89830D7F89830002B01D1202326
:103C800004E0D7F89830B3FA83F3DBB29A4206D156
:103C90007B681B68002201211846FFF749FC7B68FE
:103CA0001B6802211846FFF72DFC0346C3F31203DD
:103CB000002B0AD17B681B6802211846FFF722FC03
:103CC00003469B0E03F01F021EE07B681B68022167
:103CD0001846FFF717FC0346C7F88830D7F8883036
:103CE00093FAA3F3C7F88430D7F88430C7F88C3040
:103CF000D7F88C30002B01D1202304E0D7F88C308A
:103D0000B3FA83F3DBB21A463B681B68C3F31203B2
:103D1000002B05D13B681B689B0E03F01F0314E0CA
:103D20003B681B68FB67FB6F93FAA3F3BB67BB6F32
:103D3000C7F88030D7F88030002B01D1202304E071
:103D4000D7F88030B3FA83F3DBB29A4206D17B68AE
:103D50001B68002202211846FFF7EAFB7B681B68FC
:103D600003211846FFF7CEFB0346C3F31203002BD3
:103D70000AD17B681B6803211846FFF7C3FB034683
:103D80009B0E03F01F0217E07B681B680321184697
:103D9000FFF7B8FB03463B673B6F93FAA3F3FB6661
:103DA000FB6E7B677B6F002B01D1202303E07B6FD1
:103DB000B3FA83F3DBB21A463B681B68C3F3120302
:103DC000002B05D13B681B689B0E03F01F0311E01D
:103DD0003B681B687B667B6E93FAA3F33B663B6E86
:103DE000BB66BB6E002B01D1202303E0BB6EB3FA90
:103DF00083F3DBB29A4206D17B681B680022032161
:103E00001846FFF795FB7B681B681846FFF774FCA4
:103E10000346002B40F040817B6818683B681968B6
:103E20003B68DB681A46FFF7F5FB3B68DB688F4AA7
:103E3000934240F031817B6818683B681B68C3F38C
:103E40001203002B0BD13B681B689B0E013303F060
:103E50001F03092B94BF01230023DBB219E03B6849
:103E60001B68BB65BB6D93FAA3F37B657B6DFB653C
:103E7000FB6D002B01D1202303E0FB6DB3FA83F32C
:103E8000DBB2013303F01F03092B94BF012300238E
:103E9000DBB2002B79D03B681B68C3F31203002B05
:103EA00007D13B681B689B0E01339B0603F0F84269
:103EB00015E03B681B68FB64FB6C93FAA3F3BB64DF
:103EC000BB6C3B653B6D002B01D1202303E03B6DB8
:103ED000B3FA83F3DBB201339B0603F0F8423B688D
:103EE0001B68C3F31203002B09D13B681B689B0EB0
:103EF000013303F01F03012101FA03F317E03B68CC
:103F00001B683B643B6C93FAA3F3FB63FB6B7B6422
:103F10007B6C002B01D1202303E07B6CB3FA83F38D
:103F2000DBB2013303F01F03012101FA03F342EA7C
:103F300003013B681B68C3F31203002B0AD13B68E3
:103F40001B689B0E013303F01F0213465B001344F2
:103F50001B0518E03B681B687B637B6B93FAA3F33C
:103F60003B633B6BBB63BB6B002B01D1202303E0A6
:103F7000BB6BB3FA83F3DBB2013303F01F021346CA
:103F80005B0013441B050B4381E03B681B68C3F3D4
:103F90001203002B07D13B681B689B0E01339B0665
:103FA00003F0F84215E03B681B68BB62BB6A93FAFA
:103FB000A3F37B627B6AFB62FB6A002B01D12023A7
:103FC00003E0FB6AB3FA83F3DBB201339B0603F031
:103FD000F8423B681B68C3F31203002B09D13B680E
:103FE0001B689B0E013303F01F03012101FA03F349
:103FF00017E03B681B68FB61FB6993FAA3F3BB61A5
:10400000BB693B623B6A002B01D1202303E03B6A82
:10401000B3FA83F3DBB2013303F01F03012101FA8A
:1040200003F342EA03013B681B68C3F31203002B4E
:104030000DD13B681B689B0E013303F01F02134632
:104040005B0013441E3B1B0543F000731EE03B68FE
:104050001B683B613B6993FAA3F3FB60FB687B61E0
:104060007B69002B04D1202306E000BF00007F40C5
:104070007B69B3FA83F3DBB2013303F01F0213460B
:104080005B0013441E3B1B0543F000730B433A686F
:1040900092681946FFF793FA3B681A683D4B134044
:1040A000002B6CD03C48FFF7FBF9C7F8C0003B6819
:1040B0001B683A4A934227D1D7F8C03003F4000373
:1040C000002B21D17B681B68354A934257D1D7F822
:1040D000C03043F4000319462F48FFF7CEF9314BA7
:1040E0001B689B09304AA2FB03239B095A1C1346F9
:1040F0005B0013449B00BB6002E0BB68013BBB60FC
:10410000BB68002BF9D13AE03B681B68274A934211
:1041100013D1D7F8C03003F08073002B0DD17B682A
:104120001B681F4A93422AD1D7F8C03043F08073EE
:1041300019461948FFF7A1F921E03B681B681C4AA2
:1041400093421CD1D7F8C03003F48003002B16D162
:104150007B681B68124A934211D1D7F8C03043F4F0
:10416000800319460C48FFF788F908E07B685B6D0F
:1041700043F020027B685A65012387F8D7307B68BB
:10418000002283F8502097F8D7301846D837BD461C
:1041900080BD00BF0000088000030450000052C72B
:1041A0000000045000000020632D3E05000084CB79
:1041B0000100008080B485B000AF78607B6803F0B8
:1041C0000703FB600C4BDB68BB60BA684FF6FF036C
:1041D0001340BB60FB681A02BB68134343F0BF6324
:1041E00043F40033BB60044ABB68D36000BF14379C
:1041F000BD465DF8047B704700ED00E080B400AF81
:10420000044BDB681B0A03F007031846BD465DF844
:10421000047B704700ED00E080B483B000AF03463C
:10422000FB7197F90730002B0BDBFB7903F01F02C2
:10423000074997F907305B09012000FA02F241F8BB
:10424000232000BF0C37BD465DF8047B704700BFDC
:1042500000E100E080B483B000AF03463960FB7139
:1042600097F90730002B0ADB3B68DAB20C4997F963
:1042700007301201D2B20B4483F800230AE03B68F6
:10428000DAB20849FB7903F00F03043B1201D2B202
:104290000B441A7600BF0C37BD465DF8047B7047AF
:1042A00000E100E000ED00E080B489B000AFF8600C
:1042B000B9607A60FB6803F00703FB61FB69C3F137
:1042C0000703042B28BF0423BB61FB690433062BBF
:1042D00002D9FB69033B00E000237B614FF0FF3212
:1042E000BB6902FA03F3DA43BB681A407B699A4060
:1042F0004FF0FF317B6901FA03F3D9437B680B4030
:10430000134318462437BD465DF8047B7047000010
:1043100080B582B000AF78607B68013BB3F1807FED
:1043200001D301230FE00A4A7B68013B53600F2150
:104330004FF0FF30FFF78EFF054B00229A60044BD1
:1043400007221A60002318460837BD4680BD00BF0B
:1043500010E000E080B582B000AF78607868FFF7C9
:1043600029FF00BF0837BD4680BD80B586B000AFCD
:104370000346B9607A60FB7300237B61FFF73EFF61
:1043800078617A68B9687869FFF78EFF024697F915
:104390000F3011461846FFF75DFF00BF1837BD46C6
:1043A00080BD80B582B000AF0346FB7197F907303E
:1043B0001846FFF731FF00BF0837BD4680BD80B506
:1043C00082B000AF78607868FFF7A2FF0346184616
:1043D0000837BD4680BD000080B485B000AF78606E
:1043E0007B68002B01D1012398E07B681B681A468B
:1043F0004D4B9A420FD87B681B681A464B4B1344AF
:104400004B4AA2FB03231B099A007B685A647B6812
:10441000484A1A640EE07B681B681A46464B1344F0
:10442000434AA2FB03231B099A007B685A647B68FA
:10443000424A1A647B68022283F825207B681B6845
:104440001B68FB60FB6823F4FF4323F07003FB60F1
:104450007B689A687B68DB681A437B681B691A4330
:104460007B685B691A437B689B691A437B68DB69DD
:104470001A437B681B6A1343FA681343FB607B682B
:104480001B68FA681A607B689B68B3F5804F39D067
:104490007B681B6C274A93421AD1294B1A687B68A8
:1044A0005B6C03F01C030F2101FA03F3DB43244987
:1044B00013400B60224B1A687B6859687B685B6C01
:1044C00003F01C0301FA03F31D4913430B6019E0C9
:1044D0001C4B1A687B685B6C03F01C030F2101FA0C
:1044E00003F3DB43174913400B60164B1A687B68D4
:1044F00059687B685B6C03F01C0301FA03F31149F4
:1045000013430B607B680022DA637B68012283F827
:1045100025207B68002283F82420002318461437C6
:10452000BD465DF8047B704707040240F8FFFDBFFD
:10453000CDCCCCCC00000240F8FBFDBF0004024013
:10454000A8000240A804024080B586B000AFF86021
:10455000B9607A603B600023FB75FB6893F82430F8
:10456000012B01D102234BE0FB68012283F82420B8
:10457000FB6893F82530DBB2012B3AD1FB680222AD
:1045800083F82520FB680022DA63FB681B681A6841
:10459000FB681B6822F001021A603B687A68B96800
:1045A000F86800F05FF9FB681B6B002B08D0FB6814
:1045B0001B681A68FB681B6842F00E021A600FE065
:1045C000FB681B681A68FB681B6822F004021A600B
:1045D000FB681B681A68FB681B6842F00A021A60D5
:1045E000FB681B681A68FB681B6842F001021A60CE
:1045F00005E0FB68002283F824200223FB75FB7D85
:1046000018461837BD4680BD80B485B000AF7860CD
:104610000023FB737B6893F82530DBB2022B08D0B4
:104620007B680422DA637B68002283F8242001235C
:1046300022E07B681B681A687B681B6822F00E0208
:104640001A607B681B681A687B681B6822F001028D
:104650001A607B685B6C03F01C027B681B6C012199
:1046600001FA02F25A607B68012283F825207B68F8
:10467000002283F82420FB7B18461437BD465DF8E2
:10468000047B704780B584B000AF78600023FB7373
:104690007B6893F82530DBB2022B05D07B680422BF
:1046A000DA630123FB7329E07B681B681A687B6867
:1046B0001B6822F00E021A607B681B681A687B6810
:1046C0001B6822F001021A607B685B6C03F01C021D
:1046D0007B681B6C012101FA02F25A607B6801229F
:1046E00083F825207B68002283F824207B689B6B5D
:1046F000002B03D07B689B6B78689847FB7B184640
:104700001037BD4680BD80B584B000AF78607B684F
:104710001B6C1B68FB607B681B681B68BB607B684D
:104720005B6C03F01C0304229A40FB681340002BCF
:1047300026D0BB6803F00403002B21D07B681B68E4
:104740001B6803F02003002B07D17B681B681A68E5
:104750007B681B6822F004021A607B685B6C03F0C4
:104760001C027B681B6C042101FA02F25A607B6810
:104770001B6B002B71D07B681B6B786898476CE0D3
:104780007B685B6C03F01C0302229A40FB681340B9
:10479000002B2ED0BB6803F00203002B29D07B68CE
:1047A0001B681B6803F02003002B0BD17B681B6880
:1047B0001A687B681B6822F00A021A607B68012273
:1047C00083F825207B685B6C03F01C027B681B6C04
:1047D000022101FA02F25A607B68002283F8242049
:1047E0007B68DB6A002B38D07B68DB6A7868984787
:1047F00033E07B685B6C03F01C0308229A40FB6883
:104800001340002B2AD0BB6803F00803002B25D0EF
:104810007B681B681A687B681B6822F00E021A60AE
:104820007B685B6C03F01C027B681B6C012101FA46
:1048300002F25A607B680122DA637B68012283F806
:1048400025207B68002283F824207B685B6B002B8B
:1048500004D07B685B6B7868984700BF00BF103757
:10486000BD4680BD80B485B000AFF860B9607A60A5
:104870003B60FB685B6C03F01C02FB681B6C012156
:1048800001FA02F25A60FB681B683A685A60FB68DA
:104890009B68102B08D1FB681B687A689A60FB68DC
:1048A0001B68BA68DA6007E0FB681B68BA689A6040
:1048B000FB681B687A68DA6000BF1437BD465DF894
:1048C000047B704780B586B000AFF860B960C7E977
:1048D000002300233B612F4B1B78012B01D10223C6
:1048E00053E02C4B01221A704CF2503000F094F837
:1048F0000346FB75FB7D002B43D1264B00225A60FB
:10490000254B1B6803F48063002B09D0224B1B68E6
:10491000214A23F4806313601E4B02221A7702E0BF
:104920001C4B00221A77FB68002B07D1D7E9002324
:10493000B86800F0C7F801233B6110E0FB68012B69
:1049400002D0FB68022B0AD13B681946B86800F018
:10495000DFF8FB68022B02D14FF480233B614CF25D
:10496000503000F059F80346FB753B69002B06D028
:10497000094B5A693B69DB43074913404B6100F01F
:10498000D9F9044B00221A70FB7D18461837BD4632
:1049900080BD00BF0C0000200020024080B483B026
:1049A00000AF0023FB710B4B5B69002B0BDA094B4B
:1049B000094A9A60074B094A9A60064B5B69002BCB
:1049C00001DA0123FB71FB7918460C37BD465DF80F
:1049D000047B70470020024023016745AB89EFCD7F
:1049E00080B400AF054B5B69044A43F00043536158
:1049F00000231846BD465DF8047B70470020024046
:104A000080B400AF034B5B681846BD465DF8047B7D
:104A1000704700BF0C00002080B584B000AF786004
:104A2000FEF7E8FCF8600DE07B68B3F1FF3F09D0CA
:104A3000FEF7E0FC0246FB68D31A7A689A4201D876
:104A4000032335E01C4B1B6903F48033002BEBD1AF
:104A5000194B1A69194B1340BB60BB68002B1DD062
:104A6000174B5A68BB681343154A5360BB68B3F1D0
:104A7000804F07D3104B9A69BB6803F040430E493F
:104A800013438B61BB6823F04043002B04D00A4AD8
:104A9000BB6823F040431361012309E0064B1B6907
:104AA00003F00103002B02D0034B01221A61002303
:104AB00018461037BD4680BD00200240FAC30200F0
:104AC0000C00002080B485B000AFF860C7E9002377
:104AD0000E4B5B690D4A43F001035361FB683A6872
:104AE0001A60BFF36F8F00BFD7E900014FF00002DB
:104AF0004FF000030A000023F968043113460B60ED
:104B000000BF1437BD465DF8047B704700200240AB
:104B100080B489B000AF786039604023FB777B6850
:104B2000BB613B687B61144B5B69134A43F4802390
:104B30005361EFF31083FB60FB683B6172B600BF0B
:104B40007B691A68BB691A60BB690433BB617B6906
:104B500004337B61FB7F013BFB77FB7F002BEFD1B5
:104B60003B69BB60BB6883F3108800BF00BF24377C
:104B7000BD465DF8047B70470020024080B584B0DC
:104B800000AF78603960484B1B78012B01D10223BC
:104B900085E0454B01221A704CF25030FFF73CFF84
:104BA0000346FB73FB7B002B75D13F4B00225A6001
:104BB0003E4B1B6803F40073002B13D03B4B1B6868
:104BC00003F48063002B09D0384B1B68374A23F469
:104BD00080631360344B03221A7716E0324B0122B4
:104BE0001A7712E0314B1B6803F48063002B09D065
:104BF0002E4B1B682D4A23F4806313602A4B02223C
:104C00001A7702E0284B00221A777B681B68012B79
:104C100011D17B685B68184600F04AF84CF25030BE
:104C2000FFF7FAFE0346FB73204B5B691F4A23F034
:104C3000040353612DE03B684FF0FF321A607B683C
:104C40009B68BB601DE07B685B681946B86800F034
:104C50004DF84CF25030FFF7DFFE0346FB73134B69
:104C60005B69124A23F47E7323F002035361FB7BDA
:104C7000002B03D03B68BA681A600AE0BB680133B6
:104C8000BB607B689A687B68DB681344BA689A42A9
:104C9000D9D300F04FF8044B00221A70FB7B184662
:104CA0001037BD4680BD00BF0C0000200020024030
:104CB00080B483B000AF78607B6803F00103002B01
:104CC00005D0094B5B69084A43F004035361064B66
:104CD0005B69054A43F48033536100BF0C37BD461E
:104CE0005DF8047B704700BF0020024080B483B0B1
:104CF00000AF786039600E4B5B6923F47E727B688D
:104D0000DB0003F4FF630A4913434B61084B5B6903
:104D1000074A43F002035361054B5B69044A43F4BD
:104D20008033536100BF0C37BD465DF8047B70478C
:104D30000020024080B483B000AF214B1B7FFB7189
:104D4000FB79012B02D0FB79032B17D11D4B1B687C
:104D50001C4A23F4007313601A4B1B68194A43F46E
:104D600000631360174B1B68164A23F4006313603B
:104D7000144B1B68134A43F400731360FB79022B36
:104D800002D0FB79032B11D10E4B1B680D4A43F463
:104D9000805313600B4B1B680A4A23F48053136043
:104DA000084B1B68074A43F480631360044B0022DE
:104DB0001A7700BF0C37BD465DF8047B704700BF13
:104DC0000C0000200020024080B487B000AF786063
:104DD000396000237B6154E13B681A6801217B69DB
:104DE00001FA03F31340FB60FB68002B00F04681DF
:104DF0003B685B6803F00303012B05D03B685B68ED
:104E000003F00303022B30D17B689B683B617B6915
:104E10005B00032202FA03F3DB433A6913403B6170
:104E20003B68DA687B695B0002FA03F33A69134373
:104E30003B617B683A699A607B685B683B610122F1
:104E40007B6902FA03F3DB433A6913403B613B6839
:104E50005B681B0903F001027B6902FA03F33A69FC
:104E600013433B617B683A695A603B685B6803F0B7
:104E70000303032B17D07B68DB683B617B695B0016
:104E8000032202FA03F3DB433A6913403B613B68B8
:104E90009A687B695B0002FA03F33A6913433B614A
:104EA0007B683A69DA603B685B6803F00303022BB6
:104EB00023D17B69DA087B68083253F822303B61E2
:104EC0007B6903F007039B000F2202FA03F3DB4325
:104ED0003A6913403B613B681A697B6903F0070339
:104EE0009B0002FA03F33A6913433B617B69DA08DA
:104EF0007B680832396943F822107B681B683B6184
:104F00007B695B00032202FA03F3DB433A69134037
:104F10003B613B685B6803F003027B695B0002FA5C
:104F200003F33A6913433B617B683A691A603B6853
:104F30005B6803F44033002B00F0A080584B1B6EDD
:104F4000574A43F001031366554B1B6E03F00103F0
:104F5000BB60BB68534A7B699B08023352F823301D
:104F60003B617B6903F003039B000F2202FA03F30A
:104F7000DB433A6913403B617B68B3F1904F19D032
:104F80007B68494A934213D07B68484A93420DD0CC
:104F90007B68474A934207D07B68464A934201D1D7
:104FA000042308E0072306E0032304E0022302E0D1
:104FB000012300E000237A6902F00302920093408B
:104FC0003A6913433B6137497B699B0802333A696D
:104FD00041F82320384B9B683B61FB68DB433A690F
:104FE00013403B613B685B6803F48013002B03D0E4
:104FF0003A69FB6813433B612F4A3B6993602E4B30
:10500000DB683B61FB68DB433A6913403B613B680B
:105010005B6803F40013002B03D03A69FB68134369
:105020003B61254A3B69D360234B5B683B61FB686E
:10503000DB433A6913403B613B685B6803F4003330
:10504000002B03D03A69FB6813433B611A4A3B6962
:105050005360194B1B683B61FB68DB433A691340A3
:105060003B613B685B6803F48033002B03D03A69F3
:10507000FB6813433B61104A3B6913607B69013352
:105080007B613B681A687B6922FA03F3002B7FF48B
:10509000A3AE00BF00BF1C37BD465DF8047B704760
:1050A00000100240000001400004004800080048D1
:1050B000000C0048001000480004014080B483B098
:1050C00000AF78600B467B8013467B707B78002BAB
:1050D00003D07A887B689A6102E07A887B689A625A
:1050E00000BF0C37BD465DF8047B704780B485B0C7
:1050F00000AF78600B467B807B685B69FB607A88D9
:10510000FB6813401A04FB68D9437B880B401A43A1
:105110007B689A6100BF1437BD465DF8047B704719
:1051200080B582B000AF0346FB80084B5A69FB880C
:105130001340002B06D0054AFB885361FB881846B4
:1051400000F006F800BF0837BD4680BD00040140EE
:1051500080B483B000AF0346FB8000BF0C37BD4670
:105160005DF8047B704780B582B000AF78607B68E3
:10517000002B01D101238DE07B6893F84130DBB235
:10518000002B06D17B68002283F840207868FDF769
:10519000ABFC7B68242283F841207B681B681A687B
:1051A0007B681B6822F001021A607B685A687B6882
:1051B0001B6822F070621A617B681B689A687B68C2
:1051C0001B6822F400429A607B68DB68012B07D1E0
:1051D0007B689A687B681B6842F400429A6006E02C
:1051E0007B689A687B681B6842F404429A607B681B
:1051F000DB68022B08D17B681B685A687B681B68D8
:1052000042F400625A6007E07B681B685A687B685A
:105210001B6822F400625A607B681B685B687A68CE
:10522000126843F0007343F4004353607B681B68CB
:10523000DA687B681B6822F40042DA607B681A69CE
:105240007B685B6942EA03017B689B691A027B68A1
:105250001B680A43DA607B68D9697B681A6A7B68D5
:105260001B680A431A607B681B681A687B681B68A6
:1052700042F001021A607B6800225A647B68202297
:1052800083F841207B6800221A637B68002283F840
:105290004220002318460837BD4680BD80B588B03F
:1052A00002AFF8607A601A460B467B8113463B8159
:1052B000FB6893F84130DBB2202B40F0FD80FB68A7
:1052C00093F84030012B01D10223F6E0FB68012264
:1052D00083F84020FEF78EF838613B69009319236C
:1052E00001224FF40041F86800F00AFA0346002B4F
:1052F00001D00123E1E0FB68212283F84120FB6813
:10530000102283F84220FB6800225A64FB687A6806
:105310005A62FB683A895A85FB6800225A63FB6827
:105320005B8D9BB2FF2B06D9FB68FF221A854FF0DD
:1053300080737B6107E0FB685B8D9AB2FB681A851E
:105340004FF000737B61FB681B8D002B24D0FB6842
:105350005B6A1A78FB681B689A62FB685B6A5A1C76
:10536000FB685A62FB685B8D9BB2013B9AB2FB689B
:105370005A85FB681B8D013B9AB2FB681A85FB6856
:105380001B8DDBB20133DAB279894E4B00937B6916
:10539000F86800F005FC66E0FB681B8DDAB27989DD
:1053A000484B00937B69F86800F0FAFB5BE03A69D0
:1053B000396AF86800F0FDF90346002B01D001239B
:1053C0007BE0FB685B6A1A78FB681B689A62FB6883
:1053D0005B6A5A1CFB685A62FB685B8D9BB2013B9F
:1053E0009AB2FB685A85FB681B8D013B9AB2FB6839
:1053F0001A85FB685B8D9BB2002B34D0FB681B8D3C
:10540000002B30D13B6900933B6A00228021F86871
:1054100000F076F90346002B01D001234DE0FB6834
:105420005B8D9BB2FF2B0ED9FB68FF221A85FB68B0
:105430001B8DDAB27989002300934FF08073F868EE
:1054400000F0AEFB0FE0FB685B8D9AB2FB681A853B
:10545000FB681B8DDAB27989002300934FF000734B
:10546000F86800F09DFBFB685B8D9BB2002B9ED122
:105470003A69396AF86800F0E3F90346002B01D075
:1054800001231AE0FB681B682022DA61FB681B68B5
:105490005968FB681A680C4B0B405360FB6820226C
:1054A00083F84120FB68002283F84220FB68002239
:1054B00083F84020002300E0022318461837BD4639
:1054C00080BD00BF0020008000E800FE80B588B0ED
:1054D00002AFF8607A601A460B467B8113463B8127
:1054E000FB6893F84130DBB2202B40F0DB80FB6897
:1054F00093F84030012B01D10223D4E0FB68012254
:1055000083F84020FDF776FF78617B6900931923CB
:1055100001224FF40041F86800F0F2F80346002B36
:1055200001D00123BFE0FB68222283F84120FB6801
:10553000102283F84220FB6800225A64FB687A68D4
:105540005A62FB683A895A85FB6800225A63FB68F5
:105550005B8D9BB2FF2B0ED9FB6801221A85FB687D
:105560001B8DDAB27989524B00934FF08073F86843
:1055700000F016FB6DE0FB685B8D9AB2FB681A8544
:10558000FB681B8DDAB27989494B00934FF00073A9
:10559000F86800F005FB5CE07A69396AF86800F0A9
:1055A00093F90346002B01D001237CE0FB681B68C4
:1055B0005A6AFB685B6AD2B21A70FB685B6A5A1C53
:1055C000FB685A62FB681B8D013B9AB2FB681A8527
:1055D000FB685B8D9BB2013B9AB2FB685A85FB6806
:1055E0005B8D9BB2002B34D0FB681B8D002B30D120
:1055F0007B6900933B6A00228021F86800F080F804
:105600000346002B01D001234DE0FB685B8D9BB26C
:10561000FF2B0ED9FB68FF221A85FB681B8DDAB2BF
:105620007989002300934FF08073F86800F0B8FA8E
:105630000FE0FB685B8D9AB2FB681A85FB681B8DD7
:10564000DAB27989002300934FF00073F86800F014
:10565000A7FAFB685B8D9BB2002B9DD17A69396AF2
:10566000F86800F0EDF80346002B01D001231AE0A2
:10567000FB681B682022DA61FB681B685968FB68BD
:105680001A680C4B0B405360FB68202283F84120C2
:10569000FB68002283F84220FB68002283F8402048
:1056A000002300E0022318461837BD4680BD00BF26
:1056B0000024008000E800FE80B483B000AF786072
:1056C0007B681B689B6903F00203022B03D17B6894
:1056D0001B6800229A627B681B689B6903F00103C8
:1056E000012B07D07B681B689A697B681B6842F0B6
:1056F00001029A6100BF0C37BD465DF8047B70471C
:1057000080B584B000AFF860B9603B601346FB71B0
:105710003BE0BA693968F86800F062F90346002B8B
:1057200001D0012341E03B68B3F1FF3F2DD0FDF7ED
:1057300061FE0246BB69D31A3A689A4202D33B68BB
:10574000002B22D1FB681B689A69BB681340BA68BA
:105750009A420CBF01230023DBB21A46FB799A421E
:1057600013D1FB685B6C43F02002FB685A64FB6852
:10577000202283F84120FB68002283F84220FB6846
:10578000002283F8402001230FE0FB681B689A6920
:10579000BB681340BA689A420CBF01230023DBB2F6
:1057A0001A46FB799A42B4D0002318461037BD46FA
:1057B00080BD80B584B000AFF860B9607A6033E036
:1057C0007A68B968F86800F00BF90346002B01D03D
:1057D000012331E0BB68B3F1FF3F25D0FDF70AFE9E
:1057E00002467B68D31ABA689A4202D3BB68002B80
:1057F0001AD1FB681B689B6903F00203022B13D0CC
:10580000FB685B6C43F02002FB685A64FB68202253
:1058100083F84120FB68002283F84220FB680022C5
:1058200083F84020012307E0FB681B689B6903F0B5
:105830000203022BC4D1002318461037BD4680BD99
:1058400080B584B000AFF860B9607A602FE07A6804
:10585000B968F86800F0C4F80346002B01D00123B2
:105860002DE0FDF7C7FD02467B68D31ABA689A425D
:1058700002D3BB68002B1AD1FB681B689B6903F03D
:105880002003202B13D0FB685B6C43F02002FB68E5
:105890005A64FB68202283F84120FB68002283F8C9
:1058A0004220FB68002283F84020012307E0FB68C8
:1058B0001B689B6903F02003202BC8D100231846E6
:1058C0001037BD4680BD000080B586B000AFF860DF
:1058D000B9607A600023FB7571E07A68B968F8688E
:1058E00000F07EF80346002B01D00123FB75FB6816
:1058F0001B689B6903F02003202B3BD1FB7D002B11
:1059000038D1FB681B689B6903F00403042B05D1A5
:10591000FB681B8D002B01D00023FB75FB681B6807
:105920009B6903F01003102B21D1FB681B68102228
:10593000DA61FB6804225A64FB681B682022DA6182
:10594000FB681B685968FB681A68244B0B4053605E
:10595000FB68202283F84120FB68002283F8422064
:10596000FB68002283F840200123FB7502E0FB68FE
:1059700000225A64FDF73EFD02467B68D31ABA68DE
:105980009A4202D3BB68002B19D1FB7D002B16D1A4
:10599000FB681B689B6903F00403042B0FD0FB68B2
:1059A0005B6C43F02002FB685A64FB68202283F89A
:1059B0004120FB68002283F840200123FB75FB682F
:1059C0001B689B6903F00403042B02D0FB7D002BB2
:1059D00083D0FB7D18461837BD4680BD00E800FE29
:1059E00080B58AB000AFF860B9607A60002387F8AC
:1059F0002730FB681B689B69BB6100233B627B68A7
:105A0000FB61BB6903F01003002B68D0FB681B68C7
:105A10001022DA6149E0BB68B3F1FF3F45D0FDF7E2
:105A2000E9FC0246FB69D31ABA689A4202D3BB6802
:105A3000002B3AD1FB681B685B6803F480437B61F1
:105A4000FB6893F84230FB74FB681B689B6903F4A6
:105A50000043B3F5004F21D17B69B3F5804F1DD0D2
:105A6000FB7C202B1AD0FB681B685A68FB681B68FC
:105A700042F480425A60FDF7BDFCF8610EE0FDF78C
:105A8000B9FC0246FB69D31A192B07D93B6A43F0CC
:105A900020033B62012387F8273006E0FB681B6880
:105AA0009B6903F02003202BE9D1FB681B689B69ED
:105AB00003F02003202B03D097F82730002BAAD027
:105AC00097F82730002B03D1FB681B682022DA618E
:105AD0003B6A43F004033B62012387F82730FB68ED
